{
  "contractName": "Builder",
  "abi": [
    {
      "inputs": [],
      "name": "buildSignature",
      "outputs": [
        {
          "internalType": "bytes4",
          "name": "",
          "type": "bytes4"
        }
      ],
      "stateMutability": "view",
      "type": "function",
      "constant": true
    }
  ],
  "bytecode": "0x6080604052348015600f57600080fd5b5060c58061001e6000396000f3fe6080604052348015600f57600080fd5b506004361060285760003560e01c8063121956b814602d575b600080fd5b60336068565b60405180827bffffffffffffffffffffffffffffffffffffffffffffffffffffffff1916815260200191505060405180910390f35b60007efdd58ea0325fd79f486f8008ad3fad17dcb1cd2ee8474215c114771d87863e90509056fea264697066735822122035289df2cc1379bf9880786bf2e2248dcc0a37a935488de36e81a94b98653cd064736f6c63430007000033",
  "immutableReferences": {},
  "source": "// SPDX-License-Identifier: MIT\r\npragma solidity ^0.7.0;\r\n\r\ncontract Builder {\r\n    function buildSignature() public view returns (bytes4) {\r\n        return bytes4(keccak256(\"balanceOf(address,uint256)\"));\r\n    }\r\n}\r\n",
  "sourcePath": "C:/Users/caleteet/source/Public/HackMoney/contracts/Builder.sol",
  "compiler": {
    "name": "solc",
    "version": "0.7.0+commit.9e61f92b.Emscripten.clang"
  },
  "schemaVersion": "3.4.1",
  "updatedAt": "2021-07-04T22:48:16.013Z",
  "networkType": "ethereum",
  "devdoc": {
    "kind": "dev",
    "methods": {},
    "version": 1
  },
  "userdoc": {
    "kind": "user",
    "methods": {},
    "version": 1
  }
}