{
  "contractName": "Items",
  "abi": [
    {
      "inputs": [],
      "stateMutability": "nonpayable",
      "type": "constructor"
    },
    {
      "anonymous": false,
      "inputs": [
        {
          "indexed": true,
          "internalType": "address",
          "name": "account",
          "type": "address"
        },
        {
          "indexed": true,
          "internalType": "address",
          "name": "operator",
          "type": "address"
        },
        {
          "indexed": false,
          "internalType": "bool",
          "name": "approved",
          "type": "bool"
        }
      ],
      "name": "ApprovalForAll",
      "type": "event"
    },
    {
      "anonymous": false,
      "inputs": [
        {
          "indexed": true,
          "internalType": "address",
          "name": "operator",
          "type": "address"
        },
        {
          "indexed": true,
          "internalType": "address",
          "name": "from",
          "type": "address"
        },
        {
          "indexed": true,
          "internalType": "address",
          "name": "to",
          "type": "address"
        },
        {
          "indexed": false,
          "internalType": "uint256[]",
          "name": "ids",
          "type": "uint256[]"
        },
        {
          "indexed": false,
          "internalType": "uint256[]",
          "name": "values",
          "type": "uint256[]"
        }
      ],
      "name": "TransferBatch",
      "type": "event"
    },
    {
      "anonymous": false,
      "inputs": [
        {
          "indexed": true,
          "internalType": "address",
          "name": "operator",
          "type": "address"
        },
        {
          "indexed": true,
          "internalType": "address",
          "name": "from",
          "type": "address"
        },
        {
          "indexed": true,
          "internalType": "address",
          "name": "to",
          "type": "address"
        },
        {
          "indexed": false,
          "internalType": "uint256",
          "name": "id",
          "type": "uint256"
        },
        {
          "indexed": false,
          "internalType": "uint256",
          "name": "value",
          "type": "uint256"
        }
      ],
      "name": "TransferSingle",
      "type": "event"
    },
    {
      "anonymous": false,
      "inputs": [
        {
          "indexed": false,
          "internalType": "string",
          "name": "value",
          "type": "string"
        },
        {
          "indexed": true,
          "internalType": "uint256",
          "name": "id",
          "type": "uint256"
        }
      ],
      "name": "URI",
      "type": "event"
    },
    {
      "inputs": [
        {
          "internalType": "address",
          "name": "account",
          "type": "address"
        },
        {
          "internalType": "uint256",
          "name": "id",
          "type": "uint256"
        }
      ],
      "name": "balanceOf",
      "outputs": [
        {
          "internalType": "uint256",
          "name": "",
          "type": "uint256"
        }
      ],
      "stateMutability": "view",
      "type": "function",
      "constant": true
    },
    {
      "inputs": [
        {
          "internalType": "address[]",
          "name": "accounts",
          "type": "address[]"
        },
        {
          "internalType": "uint256[]",
          "name": "ids",
          "type": "uint256[]"
        }
      ],
      "name": "balanceOfBatch",
      "outputs": [
        {
          "internalType": "uint256[]",
          "name": "",
          "type": "uint256[]"
        }
      ],
      "stateMutability": "view",
      "type": "function",
      "constant": true
    },
    {
      "inputs": [
        {
          "internalType": "address",
          "name": "account",
          "type": "address"
        },
        {
          "internalType": "address",
          "name": "operator",
          "type": "address"
        }
      ],
      "name": "isApprovedForAll",
      "outputs": [
        {
          "internalType": "bool",
          "name": "",
          "type": "bool"
        }
      ],
      "stateMutability": "view",
      "type": "function",
      "constant": true
    },
    {
      "inputs": [
        {
          "internalType": "address",
          "name": "from",
          "type": "address"
        },
        {
          "internalType": "address",
          "name": "to",
          "type": "address"
        },
        {
          "internalType": "uint256[]",
          "name": "ids",
          "type": "uint256[]"
        },
        {
          "internalType": "uint256[]",
          "name": "amounts",
          "type": "uint256[]"
        },
        {
          "internalType": "bytes",
          "name": "data",
          "type": "bytes"
        }
      ],
      "name": "safeBatchTransferFrom",
      "outputs": [],
      "stateMutability": "nonpayable",
      "type": "function"
    },
    {
      "inputs": [
        {
          "internalType": "address",
          "name": "from",
          "type": "address"
        },
        {
          "internalType": "address",
          "name": "to",
          "type": "address"
        },
        {
          "internalType": "uint256",
          "name": "id",
          "type": "uint256"
        },
        {
          "internalType": "uint256",
          "name": "amount",
          "type": "uint256"
        },
        {
          "internalType": "bytes",
          "name": "data",
          "type": "bytes"
        }
      ],
      "name": "safeTransferFrom",
      "outputs": [],
      "stateMutability": "nonpayable",
      "type": "function"
    },
    {
      "inputs": [
        {
          "internalType": "address",
          "name": "operator",
          "type": "address"
        },
        {
          "internalType": "bool",
          "name": "approved",
          "type": "bool"
        }
      ],
      "name": "setApprovalForAll",
      "outputs": [],
      "stateMutability": "nonpayable",
      "type": "function"
    },
    {
      "inputs": [
        {
          "internalType": "bytes4",
          "name": "interfaceId",
          "type": "bytes4"
        }
      ],
      "name": "supportsInterface",
      "outputs": [
        {
          "internalType": "bool",
          "name": "",
          "type": "bool"
        }
      ],
      "stateMutability": "view",
      "type": "function",
      "constant": true
    },
    {
      "inputs": [
        {
          "internalType": "uint256",
          "name": "",
          "type": "uint256"
        }
      ],
      "name": "uri",
      "outputs": [
        {
          "internalType": "string",
          "name": "",
          "type": "string"
        }
      ],
      "stateMutability": "view",
      "type": "function",
      "constant": true
    },
    {
      "inputs": [],
      "name": "addItem",
      "outputs": [
        {
          "internalType": "uint256",
          "name": "",
          "type": "uint256"
        }
      ],
      "stateMutability": "nonpayable",
      "type": "function"
    },
    {
      "inputs": [
        {
          "internalType": "uint256",
          "name": "tokenCount",
          "type": "uint256"
        }
      ],
      "name": "addItems",
      "outputs": [],
      "stateMutability": "nonpayable",
      "type": "function"
    },
    {
      "inputs": [
        {
          "internalType": "address",
          "name": "owner",
          "type": "address"
        },
        {
          "internalType": "address",
          "name": "",
          "type": "address"
        },
        {
          "internalType": "uint256",
          "name": "id",
          "type": "uint256"
        },
        {
          "internalType": "uint256",
          "name": "",
          "type": "uint256"
        },
        {
          "internalType": "bytes",
          "name": "",
          "type": "bytes"
        }
      ],
      "name": "onERC1155Received",
      "outputs": [
        {
          "internalType": "bytes4",
          "name": "",
          "type": "bytes4"
        }
      ],
      "stateMutability": "nonpayable",
      "type": "function"
    },
    {
      "inputs": [
        {
          "internalType": "address",
          "name": "operator",
          "type": "address"
        },
        {
          "internalType": "address",
          "name": "from",
          "type": "address"
        },
        {
          "internalType": "uint256[]",
          "name": "ids",
          "type": "uint256[]"
        },
        {
          "internalType": "uint256[]",
          "name": "values",
          "type": "uint256[]"
        },
        {
          "internalType": "bytes",
          "name": "data",
          "type": "bytes"
        }
      ],
      "name": "onERC1155BatchReceived",
      "outputs": [
        {
          "internalType": "bytes4",
          "name": "",
          "type": "bytes4"
        }
      ],
      "stateMutability": "nonpayable",
      "type": "function"
    }
  ],
  "bytecode": "0x60806040523480156200001157600080fd5b506040518060400160405280601681526020017f68747470733a2f2f697066732f7b69647d2e6a736f6e00000000000000000000815250620000606301ffc9a760e01b620000c960201b60201c565b6200007181620001d260201b60201c565b6200008963d9b67a2660e01b620000c960201b60201c565b620000a1630e89341c60e01b620000c960201b60201c565b50620000c363bc197c8160e01b63f23a6e6160e01b18620000c960201b60201c565b62000294565b63ffffffff60e01b817bffffffffffffffffffffffffffffffffffffffffffffffffffffffff1916141562000166576040517f08c379a000000000000000000000000000000000000000000000000000000000815260040180806020018281038252601c8152602001807f4552433136353a20696e76616c696420696e746572666163652069640000000081525060200191505060405180910390fd5b6001600080837bffffffffffffffffffffffffffffffffffffffffffffffffffffffff19167bffffffffffffffffffffffffffffffffffffffffffffffffffffffff1916815260200190815260200160002060006101000a81548160ff02191690831515021790555050565b8060039080519060200190620001ea929190620001ee565b5050565b828054600181600116156101000203166002900490600052602060002090601f016020900481019282601f106200023157805160ff191683800117855562000262565b8280016001018555821562000262579182015b828111156200026157825182559160200191906001019062000244565b5b50905062000271919062000275565b5090565b5b808211156200029057600081600090555060010162000276565b5090565b612b4380620002a46000396000f3fe608060405234801561001057600080fd5b50600436106100b35760003560e01c8063a22cb46511610071578063a22cb46514610606578063bc197c8114610656578063d7c116f9146108ac578063e985e9c5146108da578063f23a6e6114610954578063f242432a14610a96576100b3565b8062fdd58e146100b857806301ffc9a71461011a5780630e89341c1461017d5780632b907700146102245780632eb2c2d6146102425780634e1273f414610465575b600080fd5b610104600480360360408110156100ce57600080fd5b81019080803573ffffffffffffffffffffffffffffffffffffffff16906020019092919080359060200190929190505050610ba5565b6040518082815260200191505060405180910390f35b6101656004803603602081101561013057600080fd5b8101908080357bffffffffffffffffffffffffffffffffffffffffffffffffffffffff19169060200190929190505050610c85565b60405180821515815260200191505060405180910390f35b6101a96004803603602081101561019357600080fd5b8101908080359060200190929190505050610cec565b6040518080602001828103825283818151815260200191508051906020019080838360005b838110156101e95780820151818401526020810190506101ce565b50505050905090810190601f1680156102165780820380516001836020036101000a031916815260200191505b509250505060405180910390f35b61022c610d90565b6040518082815260200191505060405180910390f35b610463600480360360a081101561025857600080fd5b81019080803573ffffffffffffffffffffffffffffffffffffffff169060200190929190803573ffffffffffffffffffffffffffffffffffffffff169060200190929190803590602001906401000000008111156102b557600080fd5b8201836020820111156102c757600080fd5b803590602001918460208302840111640100000000831117156102e957600080fd5b919080806020026020016040519081016040528093929190818152602001838360200280828437600081840152601f19601f8201169050808301925050505050505091929192908035906020019064010000000081111561034957600080fd5b82018360208201111561035b57600080fd5b8035906020019184602083028401116401000000008311171561037d57600080fd5b919080806020026020016040519081016040528093929190818152602001838360200280828437600081840152601f19601f820116905080830192505050505050509192919290803590602001906401000000008111156103dd57600080fd5b8201836020820111156103ef57600080fd5b8035906020019184600183028401116401000000008311171561041157600080fd5b91908080601f016020809104026020016040519081016040528093929190818152602001838380828437600081840152601f19601f820116905080830192505050505050509192919290505050610dcd565b005b6105af6004803603604081101561047b57600080fd5b810190808035906020019064010000000081111561049857600080fd5b8201836020820111156104aa57600080fd5b803590602001918460208302840111640100000000831117156104cc57600080fd5b919080806020026020016040519081016040528093929190818152602001838360200280828437600081840152601f19601f8201169050808301925050505050505091929192908035906020019064010000000081111561052c57600080fd5b82018360208201111561053e57600080fd5b8035906020019184602083028401116401000000008311171561056057600080fd5b919080806020026020016040519081016040528093929190818152602001838360200280828437600081840152601f19601f820116905080830192505050505050509192919290505050611258565b6040518080602001828103825283818151815260200191508051906020019060200280838360005b838110156105f25780820151818401526020810190506105d7565b505050509050019250505060405180910390f35b6106546004803603604081101561061c57600080fd5b81019080803573ffffffffffffffffffffffffffffffffffffffff16906020019092919080351515906020019092919050505061136a565b005b610877600480360360a081101561066c57600080fd5b81019080803573ffffffffffffffffffffffffffffffffffffffff169060200190929190803573ffffffffffffffffffffffffffffffffffffffff169060200190929190803590602001906401000000008111156106c957600080fd5b8201836020820111156106db57600080fd5b803590602001918460208302840111640100000000831117156106fd57600080fd5b919080806020026020016040519081016040528093929190818152602001838360200280828437600081840152601f19601f8201169050808301925050505050505091929192908035906020019064010000000081111561075d57600080fd5b82018360208201111561076f57600080fd5b8035906020019184602083028401116401000000008311171561079157600080fd5b919080806020026020016040519081016040528093929190818152602001838360200280828437600081840152601f19601f820116905080830192505050505050509192919290803590602001906401000000008111156107f157600080fd5b82018360208201111561080357600080fd5b8035906020019184600183028401116401000000008311171561082557600080fd5b91908080601f016020809104026020016040519081016040528093929190818152602001838380828437600081840152601f19601f820116905080830192505050505050509192919290505050611503565b60405180827bffffffffffffffffffffffffffffffffffffffffffffffffffffffff1916815260200191505060405180910390f35b6108d8600480360360208110156108c257600080fd5b8101908080359060200190929190505050611564565b005b61093c600480360360408110156108f057600080fd5b81019080803573ffffffffffffffffffffffffffffffffffffffff169060200190929190803573ffffffffffffffffffffffffffffffffffffffff169060200190929190505050611679565b60405180821515815260200191505060405180910390f35b610a61600480360360a081101561096a57600080fd5b81019080803573ffffffffffffffffffffffffffffffffffffffff169060200190929190803573ffffffffffffffffffffffffffffffffffffffff1690602001909291908035906020019092919080359060200190929190803590602001906401000000008111156109db57600080fd5b8201836020820111156109ed57600080fd5b80359060200191846001830284011164010000000083111715610a0f57600080fd5b91908080601f016020809104026020016040519081016040528093929190818152602001838380828437600081840152601f19601f82011690508083019250505050505050919291929050505061170d565b60405180827bffffffffffffffffffffffffffffffffffffffffffffffffffffffff1916815260200191505060405180910390f35b610ba3600480360360a0811015610aac57600080fd5b81019080803573ffffffffffffffffffffffffffffffffffffffff169060200190929190803573ffffffffffffffffffffffffffffffffffffffff169060200190929190803590602001909291908035906020019092919080359060200190640100000000811115610b1d57600080fd5b820183602082011115610b2f57600080fd5b80359060200191846001830284011164010000000083111715610b5157600080fd5b91908080601f016020809104026020016040519081016040528093929190818152602001838380828437600081840152601f19601f82011690508083019250505050505050919291929050505061173e565b005b60008073ffffffffffffffffffffffffffffffffffffffff168373ffffffffffffffffffffffffffffffffffffffff161415610c2c576040517f08c379a000000000000000000000000000000000000000000000000000000000815260040180806020018281038252602b81526020018061299e602b913960400191505060405180910390fd5b6001600083815260200190815260200160002060008473ffffffffffffffffffffffffffffffffffffffff1673ffffffffffffffffffffffffffffffffffffffff16815260200190815260200160002054905092915050565b6000806000837bffffffffffffffffffffffffffffffffffffffffffffffffffffffff19167bffffffffffffffffffffffffffffffffffffffffffffffffffffffff1916815260200190815260200160002060009054906101000a900460ff169050919050565b606060038054600181600116156101000203166002900480601f016020809104026020016040519081016040528092919081815260200182805460018160011615610100020316600290048015610d845780601f10610d5957610100808354040283529160200191610d84565b820191906000526020600020905b815481529060010190602001808311610d6757829003601f168201915b50505050509050919050565b6000610d9c6004611ab3565b6000610da86004611ac9565b9050610dc63382600160405180602001604052806000815250611ad7565b8091505090565b8151835114610e27576040517f08c379a0000000000000000000000000000000000000000000000000000000008152600401808060200182810382526028815260200180612ac56028913960400191505060405180910390fd5b600073ffffffffffffffffffffffffffffffffffffffff168473ffffffffffffffffffffffffffffffffffffffff161415610ead576040517f08c379a00000000000000000000000000000000000000000000000000000000081526004018080602001828103825260258152602001806129f26025913960400191505060405180910390fd5b610eb5611cda565b73ffffffffffffffffffffffffffffffffffffffff168573ffffffffffffffffffffffffffffffffffffffff161480610efb5750610efa85610ef5611cda565b611679565b5b610f50576040517f08c379a0000000000000000000000000000000000000000000000000000000008152600401808060200182810382526032815260200180612a176032913960400191505060405180910390fd5b6000610f5a611cda565b9050610f6a818787878787611ce2565b60005b845181101561113b576000858281518110610f8457fe5b602002602001015190506000858381518110610f9c57fe5b60200260200101519050611023816040518060600160405280602a8152602001612a49602a91396001600086815260200190815260200160002060008d73ffffffffffffffffffffffffffffffffffffffff1673ffffffffffffffffffffffffffffffffffffffff16815260200190815260200160002054611cea9092919063ffffffff16565b6001600084815260200190815260200160002060008b73ffffffffffffffffffffffffffffffffffffffff1673ffffffffffffffffffffffffffffffffffffffff168152602001908152602001600020819055506110da816001600085815260200190815260200160002060008b73ffffffffffffffffffffffffffffffffffffffff1673ffffffffffffffffffffffffffffffffffffffff16815260200190815260200160002054611da490919063ffffffff16565b6001600084815260200190815260200160002060008a73ffffffffffffffffffffffffffffffffffffffff1673ffffffffffffffffffffffffffffffffffffffff168152602001908152602001600020819055505050806001019050610f6d565b508473ffffffffffffffffffffffffffffffffffffffff168673ffffffffffffffffffffffffffffffffffffffff168273ffffffffffffffffffffffffffffffffffffffff167f4a39dc06d4c0dbc64b70af90fd698a233a518aa5d07e595d983b8c0526c8f7fb8787604051808060200180602001838103835285818151815260200191508051906020019060200280838360005b838110156111eb5780820151818401526020810190506111d0565b50505050905001838103825284818151815260200191508051906020019060200280838360005b8381101561122d578082015181840152602081019050611212565b5050505090500194505050505060405180910390a4611250818787878787611e2c565b505050505050565b606081518351146112b4576040517f08c379a0000000000000000000000000000000000000000000000000000000008152600401808060200182810382526029815260200180612a9c6029913960400191505060405180910390fd5b6060835167ffffffffffffffff811180156112ce57600080fd5b506040519080825280602002602001820160405280156112fd5781602001602082028036833780820191505090505b50905060005b845181101561135f5761133c85828151811061131b57fe5b602002602001015185838151811061132f57fe5b6020026020010151610ba5565b82828151811061134857fe5b602002602001018181525050806001019050611303565b508091505092915050565b8173ffffffffffffffffffffffffffffffffffffffff16611389611cda565b73ffffffffffffffffffffffffffffffffffffffff1614156113f6576040517f08c379a0000000000000000000000000000000000000000000000000000000008152600401808060200182810382526029815260200180612a736029913960400191505060405180910390fd5b8060026000611403611cda565b73ffffffffffffffffffffffffffffffffffffffff1673ffffffffffffffffffffffffffffffffffffffff16815260200190815260200160002060008473ffffffffffffffffffffffffffffffffffffffff1673ffffffffffffffffffffffffffffffffffffffff16815260200190815260200160002060006101000a81548160ff0219169083151502179055508173ffffffffffffffffffffffffffffffffffffffff166114b0611cda565b73ffffffffffffffffffffffffffffffffffffffff167f17307eab39ab6107e8899845ad3d59bd9653f200f220920489ca2b5937696c318360405180821515815260200191505060405180910390a35050565b600080600090505b8451811015611550576115438786838151811061152457fe5b6020026020010151600160405180602001604052806000815250611ad7565b808060010191505061150b565b5063bc197c8160e01b905095945050505050565b60608167ffffffffffffffff8111801561157d57600080fd5b506040519080825280602002602001820160405280156115ac5781602001602082028036833780820191505090505b50905060608267ffffffffffffffff811180156115c857600080fd5b506040519080825280602002602001820160405280156115f75781602001602082028036833780820191505090505b50905060005b838110156116585761160f6004611ab3565b6116196004611ac9565b83828151811061162557fe5b602002602001018181525050600182828151811061163f57fe5b60200260200101818152505080806001019150506115fd565b50611674338383604051806020016040528060008152506121bb565b505050565b6000600260008473ffffffffffffffffffffffffffffffffffffffff1673ffffffffffffffffffffffffffffffffffffffff16815260200190815260200160002060008373ffffffffffffffffffffffffffffffffffffffff1673ffffffffffffffffffffffffffffffffffffffff16815260200190815260200160002060009054906101000a900460ff16905092915050565b600061172b8685600160405180602001604052806000815250611ad7565b63f23a6e6160e01b905095945050505050565b600073ffffffffffffffffffffffffffffffffffffffff168473ffffffffffffffffffffffffffffffffffffffff1614156117c4576040517f08c379a00000000000000000000000000000000000000000000000000000000081526004018080602001828103825260258152602001806129f26025913960400191505060405180910390fd5b6117cc611cda565b73ffffffffffffffffffffffffffffffffffffffff168573ffffffffffffffffffffffffffffffffffffffff16148061181257506118118561180c611cda565b611679565b5b611867576040517f08c379a00000000000000000000000000000000000000000000000000000000081526004018080602001828103825260298152602001806129c96029913960400191505060405180910390fd5b6000611871611cda565b9050611891818787611882886124dd565b61188b886124dd565b87611ce2565b61190e836040518060600160405280602a8152602001612a49602a91396001600088815260200190815260200160002060008a73ffffffffffffffffffffffffffffffffffffffff1673ffffffffffffffffffffffffffffffffffffffff16815260200190815260200160002054611cea9092919063ffffffff16565b6001600086815260200190815260200160002060008873ffffffffffffffffffffffffffffffffffffffff1673ffffffffffffffffffffffffffffffffffffffff168152602001908152602001600020819055506119c5836001600087815260200190815260200160002060008873ffffffffffffffffffffffffffffffffffffffff1673ffffffffffffffffffffffffffffffffffffffff16815260200190815260200160002054611da490919063ffffffff16565b6001600086815260200190815260200160002060008773ffffffffffffffffffffffffffffffffffffffff1673ffffffffffffffffffffffffffffffffffffffff168152602001908152602001600020819055508473ffffffffffffffffffffffffffffffffffffffff168673ffffffffffffffffffffffffffffffffffffffff168273ffffffffffffffffffffffffffffffffffffffff167fc3d58168c5ae7397731d063d5bbf3d657854427343f4c083240f7aacaa2d0f628787604051808381526020018281526020019250505060405180910390a4611aab81878787878761254d565b505050505050565b6001816000016000828254019250508190555050565b600081600001549050919050565b600073ffffffffffffffffffffffffffffffffffffffff168473ffffffffffffffffffffffffffffffffffffffff161415611b5d576040517f08c379a0000000000000000000000000000000000000000000000000000000008152600401808060200182810382526021815260200180612aed6021913960400191505060405180910390fd5b6000611b67611cda565b9050611b8881600087611b79886124dd565b611b82886124dd565b87611ce2565b611beb836001600087815260200190815260200160002060008873ffffffffffffffffffffffffffffffffffffffff1673ffffffffffffffffffffffffffffffffffffffff16815260200190815260200160002054611da490919063ffffffff16565b6001600086815260200190815260200160002060008773ffffffffffffffffffffffffffffffffffffffff1673ffffffffffffffffffffffffffffffffffffffff168152602001908152602001600020819055508473ffffffffffffffffffffffffffffffffffffffff16600073ffffffffffffffffffffffffffffffffffffffff168273ffffffffffffffffffffffffffffffffffffffff167fc3d58168c5ae7397731d063d5bbf3d657854427343f4c083240f7aacaa2d0f628787604051808381526020018281526020019250505060405180910390a4611cd38160008787878761254d565b5050505050565b600033905090565b505050505050565b6000838311158290611d97576040517f08c379a00000000000000000000000000000000000000000000000000000000081526004018080602001828103825283818151815260200191508051906020019080838360005b83811015611d5c578082015181840152602081019050611d41565b50505050905090810190601f168015611d895780820380516001836020036101000a031916815260200191505b509250505060405180910390fd5b5082840390509392505050565b600080828401905083811015611e22576040517f08c379a000000000000000000000000000000000000000000000000000000000815260040180806020018281038252601b8152602001807f536166654d6174683a206164646974696f6e206f766572666c6f77000000000081525060200191505060405180910390fd5b8091505092915050565b611e4b8473ffffffffffffffffffffffffffffffffffffffff1661285a565b156121b3578373ffffffffffffffffffffffffffffffffffffffff1663bc197c8187878686866040518663ffffffff1660e01b8152600401808673ffffffffffffffffffffffffffffffffffffffff1681526020018573ffffffffffffffffffffffffffffffffffffffff168152602001806020018060200180602001848103845287818151815260200191508051906020019060200280838360005b83811015611f03578082015181840152602081019050611ee8565b50505050905001848103835286818151815260200191508051906020019060200280838360005b83811015611f45578082015181840152602081019050611f2a565b50505050905001848103825285818151815260200191508051906020019080838360005b83811015611f84578082015181840152602081019050611f69565b50505050905090810190601f168015611fb15780820380516001836020036101000a031916815260200191505b5098505050505050505050602060405180830381600087803b158015611fd657600080fd5b505af192505050801561200a57506040513d6020811015611ff657600080fd5b810190808051906020019092919050505060015b6121145761201661288b565b8061202157506120c3565b806040517f08c379a00000000000000000000000000000000000000000000000000000000081526004018080602001828103825283818151815260200191508051906020019080838360005b8381101561208857808201518184015260208101905061206d565b50505050905090810190601f1680156120b55780820380516001836020036101000a031916815260200191505b509250505060405180910390fd5b6040517f08c379a00000000000000000000000000000000000000000000000000000000081526004018080602001828103825260348152602001806129426034913960400191505060405180910390fd5b63bc197c8160e01b7bffffffffffffffffffffffffffffffffffffffffffffffffffffffff1916817bffffffffffffffffffffffffffffffffffffffffffffffffffffffff1916146121b1576040517f08c379a00000000000000000000000000000000000000000000000000000000081526004018080602001828103825260288152602001806129766028913960400191505060405180910390fd5b505b505050505050565b600073ffffffffffffffffffffffffffffffffffffffff168473ffffffffffffffffffffffffffffffffffffffff161415612241576040517f08c379a0000000000000000000000000000000000000000000000000000000008152600401808060200182810382526021815260200180612aed6021913960400191505060405180910390fd5b815183511461229b576040517f08c379a0000000000000000000000000000000000000000000000000000000008152600401808060200182810382526028815260200180612ac56028913960400191505060405180910390fd5b60006122a5611cda565b90506122b681600087878787611ce2565b60005b84518110156123bf5761234b600160008784815181106122d557fe5b6020026020010151815260200190815260200160002060008873ffffffffffffffffffffffffffffffffffffffff1673ffffffffffffffffffffffffffffffffffffffff1681526020019081526020016000205485838151811061233557fe5b6020026020010151611da490919063ffffffff16565b6001600087848151811061235b57fe5b6020026020010151815260200190815260200160002060008873ffffffffffffffffffffffffffffffffffffffff1673ffffffffffffffffffffffffffffffffffffffff1681526020019081526020016000208190555080806001019150506122b9565b508473ffffffffffffffffffffffffffffffffffffffff16600073ffffffffffffffffffffffffffffffffffffffff168273ffffffffffffffffffffffffffffffffffffffff167f4a39dc06d4c0dbc64b70af90fd698a233a518aa5d07e595d983b8c0526c8f7fb8787604051808060200180602001838103835285818151815260200191508051906020019060200280838360005b83811015612470578082015181840152602081019050612455565b50505050905001838103825284818151815260200191508051906020019060200280838360005b838110156124b2578082015181840152602081019050612497565b5050505090500194505050505060405180910390a46124d681600087878787611e2c565b5050505050565b606080600167ffffffffffffffff811180156124f857600080fd5b506040519080825280602002602001820160405280156125275781602001602082028036833780820191505090505b509050828160008151811061253857fe5b60200260200101818152505080915050919050565b61256c8473ffffffffffffffffffffffffffffffffffffffff1661285a565b15612852578373ffffffffffffffffffffffffffffffffffffffff1663f23a6e6187878686866040518663ffffffff1660e01b8152600401808673ffffffffffffffffffffffffffffffffffffffff1681526020018573ffffffffffffffffffffffffffffffffffffffff16815260200184815260200183815260200180602001828103825283818151815260200191508051906020019080838360005b8381101561262557808201518184015260208101905061260a565b50505050905090810190601f1680156126525780820380516001836020036101000a031916815260200191505b509650505050505050602060405180830381600087803b15801561267557600080fd5b505af19250505080156126a957506040513d602081101561269557600080fd5b810190808051906020019092919050505060015b6127b3576126b561288b565b806126c05750612762565b806040517f08c379a00000000000000000000000000000000000000000000000000000000081526004018080602001828103825283818151815260200191508051906020019080838360005b8381101561272757808201518184015260208101905061270c565b50505050905090810190601f1680156127545780820380516001836020036101000a031916815260200191505b509250505060405180910390fd5b6040517f08c379a00000000000000000000000000000000000000000000000000000000081526004018080602001828103825260348152602001806129426034913960400191505060405180910390fd5b63f23a6e6160e01b7bffffffffffffffffffffffffffffffffffffffffffffffffffffffff1916817bffffffffffffffffffffffffffffffffffffffffffffffffffffffff191614612850576040517f08c379a00000000000000000000000000000000000000000000000000000000081526004018080602001828103825260288152602001806129766028913960400191505060405180910390fd5b505b505050505050565b600080823b905060008111915050919050565b6000601f19601f8301169050919050565b60008160e01c9050919050565b600060443d101561289b5761293e565b60046000803e6128ac60005161287e565b6308c379a081146128bd575061293e565b60405160043d036004823e80513d602482011167ffffffffffffffff821117156128e95750505061293e565b808201805167ffffffffffffffff81111561290857505050505061293e565b8060208301013d85018111156129235750505050505061293e565b61292c8261286d565b60208401016040528296505050505050505b9056fe455243313135353a207472616e7366657220746f206e6f6e2045524331313535526563656976657220696d706c656d656e746572455243313135353a204552433131353552656365697665722072656a656374656420746f6b656e73455243313135353a2062616c616e636520717565727920666f7220746865207a65726f2061646472657373455243313135353a2063616c6c6572206973206e6f74206f776e6572206e6f7220617070726f766564455243313135353a207472616e7366657220746f20746865207a65726f2061646472657373455243313135353a207472616e736665722063616c6c6572206973206e6f74206f776e6572206e6f7220617070726f766564455243313135353a20696e73756666696369656e742062616c616e636520666f72207472616e73666572455243313135353a2073657474696e6720617070726f76616c2073746174757320666f722073656c66455243313135353a206163636f756e747320616e6420696473206c656e677468206d69736d61746368455243313135353a2069647320616e6420616d6f756e7473206c656e677468206d69736d61746368455243313135353a206d696e7420746f20746865207a65726f2061646472657373a2646970667358221220b14714ff86e259ebc82c6a367f194ca1e8386ad26d3236bdc2d58eaabb99442264736f6c63430007000033",
  "immutableReferences": {},
  "source": "// SPDX-License-Identifier: MIT\r\npragma solidity >=0.4.22 <0.9.0;\r\n\r\nimport \"@openzeppelin/contracts/token/ERC1155/ERC1155.sol\";\r\nimport \"@openzeppelin/contracts/token/ERC1155/ERC1155Receiver.sol\";\r\nimport \"@openzeppelin/contracts/utils/Counters.sol\";\r\n\r\ncontract Items is ERC1155, ERC1155Receiver {\r\n    using Counters for Counters.Counter;\r\n    Counters.Counter private _tokenIds;\r\n\r\n    constructor() ERC1155(\"https://ipfs/{id}.json\") {}\r\n\r\n    function addItem() public returns (uint256) {\r\n        _tokenIds.increment();\r\n\r\n        uint256 newItemId = _tokenIds.current();\r\n        _mint(msg.sender, newItemId, 1, \"\");\r\n\r\n        return newItemId;\r\n    }\r\n\r\n    function addItems(uint256 tokenCount) public {\r\n        uint256[] memory tokenIds = new uint256[](tokenCount);\r\n        uint256[] memory tokenAmounts = new uint256[](tokenCount);\r\n\r\n        for (uint256 i = 0; i < tokenCount; i++) {\r\n            _tokenIds.increment();\r\n            tokenIds[i] = _tokenIds.current();\r\n            tokenAmounts[i] = 1;\r\n        }\r\n\r\n        _mintBatch(msg.sender, tokenIds, tokenAmounts, \"\");\r\n    }\r\n\r\n    function onERC1155Received(\r\n        address owner,\r\n        address,\r\n        uint256 id,\r\n        uint256,\r\n        bytes memory\r\n    ) public virtual override returns (bytes4) {\r\n        _mint(owner, id, 1, \"\");\r\n        return this.onERC1155Received.selector;\r\n    }\r\n\r\n    function onERC1155BatchReceived(\r\n        address operator,\r\n        address from,\r\n        uint256[] memory ids,\r\n        uint256[] memory values,\r\n        bytes memory data\r\n    ) public virtual override returns (bytes4) {\r\n        for (uint256 i = 0; i < ids.length; i++) {\r\n            _mint(operator, ids[i], 1, \"\");\r\n        }\r\n        return this.onERC1155BatchReceived.selector;\r\n    }\r\n}\r\n",
  "sourcePath": "C:/Users/Administrator/Documents/Code/HackMoney/src/contracts/Items.sol",
  "compiler": {
    "name": "solc",
    "version": "0.7.0+commit.9e61f92b.Emscripten.clang"
  },
  "schemaVersion": "3.3.4",
  "updatedAt": "2021-07-03T18:16:24.083Z",
  "networkType": "ethereum",
  "devdoc": {
    "kind": "dev",
    "methods": {
      "balanceOf(address,uint256)": {
        "details": "See {IERC1155-balanceOf}. Requirements: - `account` cannot be the zero address."
      },
      "balanceOfBatch(address[],uint256[])": {
        "details": "See {IERC1155-balanceOfBatch}. Requirements: - `accounts` and `ids` must have the same length."
      },
      "isApprovedForAll(address,address)": {
        "details": "See {IERC1155-isApprovedForAll}."
      },
      "onERC1155BatchReceived(address,address,uint256[],uint256[],bytes)": {
        "details": "Handles the receipt of a multiple ERC1155 token types. This function is called at the end of a `safeBatchTransferFrom` after the balances have been updated. To accept the transfer(s), this must return `bytes4(keccak256(\"onERC1155BatchReceived(address,address,uint256[],uint256[],bytes)\"))` (i.e. 0xbc197c81, or its own function selector).",
        "params": {
          "data": "Additional data with no specified format",
          "from": "The address which previously owned the token",
          "ids": "An array containing ids of each token being transferred (order and length must match values array)",
          "operator": "The address which initiated the batch transfer (i.e. msg.sender)",
          "values": "An array containing amounts of each token being transferred (order and length must match ids array)"
        },
        "returns": {
          "_0": "`bytes4(keccak256(\"onERC1155BatchReceived(address,address,uint256[],uint256[],bytes)\"))` if transfer is allowed"
        }
      },
      "safeBatchTransferFrom(address,address,uint256[],uint256[],bytes)": {
        "details": "See {IERC1155-safeBatchTransferFrom}."
      },
      "safeTransferFrom(address,address,uint256,uint256,bytes)": {
        "details": "See {IERC1155-safeTransferFrom}."
      },
      "setApprovalForAll(address,bool)": {
        "details": "See {IERC1155-setApprovalForAll}."
      },
      "supportsInterface(bytes4)": {
        "details": "See {IERC165-supportsInterface}. Time complexity O(1), guaranteed to always use less than 30 000 gas."
      },
      "uri(uint256)": {
        "details": "See {IERC1155MetadataURI-uri}. This implementation returns the same URI for *all* token types. It relies on the token type ID substitution mechanism https://eips.ethereum.org/EIPS/eip-1155#metadata[defined in the EIP]. Clients calling this function must replace the `\\{id\\}` substring with the actual token type ID."
      }
    },
    "version": 1
  },
  "userdoc": {
    "kind": "user",
    "methods": {},
    "version": 1
  }
}