{
  "contractName": "Items",
  "abi": [
    {
      "inputs": [],
      "stateMutability": "nonpayable",
      "type": "constructor"
    },
    {
      "anonymous": false,
      "inputs": [
        {
          "indexed": true,
          "internalType": "address",
          "name": "account",
          "type": "address"
        },
        {
          "indexed": true,
          "internalType": "address",
          "name": "operator",
          "type": "address"
        },
        {
          "indexed": false,
          "internalType": "bool",
          "name": "approved",
          "type": "bool"
        }
      ],
      "name": "ApprovalForAll",
      "type": "event"
    },
    {
      "anonymous": false,
      "inputs": [
        {
          "indexed": true,
          "internalType": "address",
          "name": "operator",
          "type": "address"
        },
        {
          "indexed": true,
          "internalType": "address",
          "name": "from",
          "type": "address"
        },
        {
          "indexed": true,
          "internalType": "address",
          "name": "to",
          "type": "address"
        },
        {
          "indexed": false,
          "internalType": "uint256[]",
          "name": "ids",
          "type": "uint256[]"
        },
        {
          "indexed": false,
          "internalType": "uint256[]",
          "name": "values",
          "type": "uint256[]"
        }
      ],
      "name": "TransferBatch",
      "type": "event"
    },
    {
      "anonymous": false,
      "inputs": [
        {
          "indexed": true,
          "internalType": "address",
          "name": "operator",
          "type": "address"
        },
        {
          "indexed": true,
          "internalType": "address",
          "name": "from",
          "type": "address"
        },
        {
          "indexed": true,
          "internalType": "address",
          "name": "to",
          "type": "address"
        },
        {
          "indexed": false,
          "internalType": "uint256",
          "name": "id",
          "type": "uint256"
        },
        {
          "indexed": false,
          "internalType": "uint256",
          "name": "value",
          "type": "uint256"
        }
      ],
      "name": "TransferSingle",
      "type": "event"
    },
    {
      "anonymous": false,
      "inputs": [
        {
          "indexed": false,
          "internalType": "string",
          "name": "value",
          "type": "string"
        },
        {
          "indexed": true,
          "internalType": "uint256",
          "name": "id",
          "type": "uint256"
        }
      ],
      "name": "URI",
      "type": "event"
    },
    {
      "inputs": [
        {
          "internalType": "address",
          "name": "account",
          "type": "address"
        },
        {
          "internalType": "uint256",
          "name": "id",
          "type": "uint256"
        }
      ],
      "name": "balanceOf",
      "outputs": [
        {
          "internalType": "uint256",
          "name": "",
          "type": "uint256"
        }
      ],
      "stateMutability": "view",
      "type": "function",
      "constant": true
    },
    {
      "inputs": [
        {
          "internalType": "address[]",
          "name": "accounts",
          "type": "address[]"
        },
        {
          "internalType": "uint256[]",
          "name": "ids",
          "type": "uint256[]"
        }
      ],
      "name": "balanceOfBatch",
      "outputs": [
        {
          "internalType": "uint256[]",
          "name": "",
          "type": "uint256[]"
        }
      ],
      "stateMutability": "view",
      "type": "function",
      "constant": true
    },
    {
      "inputs": [
        {
          "internalType": "address",
          "name": "account",
          "type": "address"
        },
        {
          "internalType": "address",
          "name": "operator",
          "type": "address"
        }
      ],
      "name": "isApprovedForAll",
      "outputs": [
        {
          "internalType": "bool",
          "name": "",
          "type": "bool"
        }
      ],
      "stateMutability": "view",
      "type": "function",
      "constant": true
    },
    {
      "inputs": [
        {
          "internalType": "address",
          "name": "from",
          "type": "address"
        },
        {
          "internalType": "address",
          "name": "to",
          "type": "address"
        },
        {
          "internalType": "uint256[]",
          "name": "ids",
          "type": "uint256[]"
        },
        {
          "internalType": "uint256[]",
          "name": "amounts",
          "type": "uint256[]"
        },
        {
          "internalType": "bytes",
          "name": "data",
          "type": "bytes"
        }
      ],
      "name": "safeBatchTransferFrom",
      "outputs": [],
      "stateMutability": "nonpayable",
      "type": "function"
    },
    {
      "inputs": [
        {
          "internalType": "address",
          "name": "from",
          "type": "address"
        },
        {
          "internalType": "address",
          "name": "to",
          "type": "address"
        },
        {
          "internalType": "uint256",
          "name": "id",
          "type": "uint256"
        },
        {
          "internalType": "uint256",
          "name": "amount",
          "type": "uint256"
        },
        {
          "internalType": "bytes",
          "name": "data",
          "type": "bytes"
        }
      ],
      "name": "safeTransferFrom",
      "outputs": [],
      "stateMutability": "nonpayable",
      "type": "function"
    },
    {
      "inputs": [
        {
          "internalType": "address",
          "name": "operator",
          "type": "address"
        },
        {
          "internalType": "bool",
          "name": "approved",
          "type": "bool"
        }
      ],
      "name": "setApprovalForAll",
      "outputs": [],
      "stateMutability": "nonpayable",
      "type": "function"
    },
    {
      "inputs": [
        {
          "internalType": "bytes4",
          "name": "interfaceId",
          "type": "bytes4"
        }
      ],
      "name": "supportsInterface",
      "outputs": [
        {
          "internalType": "bool",
          "name": "",
          "type": "bool"
        }
      ],
      "stateMutability": "view",
      "type": "function",
      "constant": true
    },
    {
      "inputs": [
        {
          "internalType": "uint256",
          "name": "",
          "type": "uint256"
        }
      ],
      "name": "uri",
      "outputs": [
        {
          "internalType": "string",
          "name": "",
          "type": "string"
        }
      ],
      "stateMutability": "view",
      "type": "function",
      "constant": true
    },
    {
      "inputs": [
        {
          "internalType": "uint256",
          "name": "tokenId",
          "type": "uint256"
        },
        {
          "internalType": "uint256",
          "name": "subTokenCount",
          "type": "uint256"
        }
      ],
      "name": "tokenSplit",
      "outputs": [],
      "stateMutability": "nonpayable",
      "type": "function"
    },
    {
      "inputs": [
        {
          "internalType": "uint256",
          "name": "_tokenId",
          "type": "uint256"
        },
        {
          "internalType": "uint256",
          "name": "_salePrice",
          "type": "uint256"
        }
      ],
      "name": "royaltyInfo",
      "outputs": [
        {
          "internalType": "address",
          "name": "receiver",
          "type": "address"
        },
        {
          "internalType": "uint256",
          "name": "royaltyAmount",
          "type": "uint256"
        }
      ],
      "stateMutability": "view",
      "type": "function",
      "constant": true
    },
    {
      "inputs": [],
      "name": "addItem",
      "outputs": [
        {
          "internalType": "uint256",
          "name": "",
          "type": "uint256"
        }
      ],
      "stateMutability": "nonpayable",
      "type": "function"
    },
    {
      "inputs": [
        {
          "internalType": "uint256",
          "name": "tokenCount",
          "type": "uint256"
        }
      ],
      "name": "addItems",
      "outputs": [],
      "stateMutability": "nonpayable",
      "type": "function"
    },
    {
      "inputs": [
        {
          "internalType": "address",
          "name": "owner",
          "type": "address"
        },
        {
          "internalType": "address",
          "name": "",
          "type": "address"
        },
        {
          "internalType": "uint256",
          "name": "id",
          "type": "uint256"
        },
        {
          "internalType": "uint256",
          "name": "",
          "type": "uint256"
        },
        {
          "internalType": "bytes",
          "name": "",
          "type": "bytes"
        }
      ],
      "name": "onERC1155Received",
      "outputs": [
        {
          "internalType": "bytes4",
          "name": "",
          "type": "bytes4"
        }
      ],
      "stateMutability": "nonpayable",
      "type": "function"
    },
    {
      "inputs": [
        {
          "internalType": "address",
          "name": "operator",
          "type": "address"
        },
        {
          "internalType": "address",
          "name": "from",
          "type": "address"
        },
        {
          "internalType": "uint256[]",
          "name": "ids",
          "type": "uint256[]"
        },
        {
          "internalType": "uint256[]",
          "name": "values",
          "type": "uint256[]"
        },
        {
          "internalType": "bytes",
          "name": "data",
          "type": "bytes"
        }
      ],
      "name": "onERC1155BatchReceived",
      "outputs": [
        {
          "internalType": "bytes4",
          "name": "",
          "type": "bytes4"
        }
      ],
      "stateMutability": "nonpayable",
      "type": "function"
    }
  ],
  "bytecode": "0x60806040523480156200001157600080fd5b506040518060400160405280601681526020017f68747470733a2f2f697066732f7b69647d2e6a736f6e00000000000000000000815250620000606301ffc9a760e01b620000e160201b60201c565b6200007181620001ea60201b60201c565b6200008963d9b67a2660e01b620000e160201b60201c565b620000a1630e89341c60e01b620000e160201b60201c565b50620000c363bc197c8160e01b63f23a6e6160e01b18620000e160201b60201c565b620000db632a55205a60e01b620000e160201b60201c565b620002ac565b63ffffffff60e01b817bffffffffffffffffffffffffffffffffffffffffffffffffffffffff191614156200017e576040517f08c379a000000000000000000000000000000000000000000000000000000000815260040180806020018281038252601c8152602001807f4552433136353a20696e76616c696420696e746572666163652069640000000081525060200191505060405180910390fd5b6001600080837bffffffffffffffffffffffffffffffffffffffffffffffffffffffff19167bffffffffffffffffffffffffffffffffffffffffffffffffffffffff1916815260200190815260200160002060006101000a81548160ff02191690831515021790555050565b80600390805190602001906200020292919062000206565b5050565b828054600181600116156101000203166002900490600052602060002090601f016020900481019282601f106200024957805160ff19168380011785556200027a565b828001600101855582156200027a579182015b82811115620002795782518255916020019190600101906200025c565b5b5090506200028991906200028d565b5090565b5b80821115620002a85760008160009055506001016200028e565b5090565b6130a080620002bc6000396000f3fe608060405234801561001057600080fd5b50600436106100e95760003560e01c8063a22cb4651161008c578063d7c116f911610066578063d7c116f914610983578063e985e9c5146109b1578063f23a6e6114610a2b578063f242432a14610b6d576100e9565b8063a22cb465146106a5578063b1ef5bdb146106f5578063bc197c811461072d576100e9565b80632a55205a116100c85780632a55205a1461025a5780632b907700146102c35780632eb2c2d6146102e15780634e1273f414610504576100e9565b8062fdd58e146100ee57806301ffc9a7146101505780630e89341c146101b3575b600080fd5b61013a6004803603604081101561010457600080fd5b81019080803573ffffffffffffffffffffffffffffffffffffffff16906020019092919080359060200190929190505050610c7c565b6040518082815260200191505060405180910390f35b61019b6004803603602081101561016657600080fd5b8101908080357bffffffffffffffffffffffffffffffffffffffffffffffffffffffff19169060200190929190505050610d5c565b60405180821515815260200191505060405180910390f35b6101df600480360360208110156101c957600080fd5b8101908080359060200190929190505050610dc3565b6040518080602001828103825283818151815260200191508051906020019080838360005b8381101561021f578082015181840152602081019050610204565b50505050905090810190601f16801561024c5780820380516001836020036101000a031916815260200191505b509250505060405180910390f35b6102906004803603604081101561027057600080fd5b810190808035906020019092919080359060200190929190505050610e67565b604051808373ffffffffffffffffffffffffffffffffffffffff1681526020018281526020019250505060405180910390f35b6102cb610f08565b6040518082815260200191505060405180910390f35b610502600480360360a08110156102f757600080fd5b81019080803573ffffffffffffffffffffffffffffffffffffffff169060200190929190803573ffffffffffffffffffffffffffffffffffffffff1690602001909291908035906020019064010000000081111561035457600080fd5b82018360208201111561036657600080fd5b8035906020019184602083028401116401000000008311171561038857600080fd5b919080806020026020016040519081016040528093929190818152602001838360200280828437600081840152601f19601f820116905080830192505050505050509192919290803590602001906401000000008111156103e857600080fd5b8201836020820111156103fa57600080fd5b8035906020019184602083028401116401000000008311171561041c57600080fd5b919080806020026020016040519081016040528093929190818152602001838360200280828437600081840152601f19601f8201169050808301925050505050505091929192908035906020019064010000000081111561047c57600080fd5b82018360208201111561048e57600080fd5b803590602001918460018302840111640100000000831117156104b057600080fd5b91908080601f016020809104026020016040519081016040528093929190818152602001838380828437600081840152601f19601f820116905080830192505050505050509192919290505050610fd8565b005b61064e6004803603604081101561051a57600080fd5b810190808035906020019064010000000081111561053757600080fd5b82018360208201111561054957600080fd5b8035906020019184602083028401116401000000008311171561056b57600080fd5b919080806020026020016040519081016040528093929190818152602001838360200280828437600081840152601f19601f820116905080830192505050505050509192919290803590602001906401000000008111156105cb57600080fd5b8201836020820111156105dd57600080fd5b803590602001918460208302840111640100000000831117156105ff57600080fd5b919080806020026020016040519081016040528093929190818152602001838360200280828437600081840152601f19601f820116905080830192505050505050509192919290505050611463565b6040518080602001828103825283818151815260200191508051906020019060200280838360005b83811015610691578082015181840152602081019050610676565b505050509050019250505060405180910390f35b6106f3600480360360408110156106bb57600080fd5b81019080803573ffffffffffffffffffffffffffffffffffffffff169060200190929190803515159060200190929190505050611575565b005b61072b6004803603604081101561070b57600080fd5b81019080803590602001909291908035906020019092919050505061170e565b005b61094e600480360360a081101561074357600080fd5b81019080803573ffffffffffffffffffffffffffffffffffffffff169060200190929190803573ffffffffffffffffffffffffffffffffffffffff169060200190929190803590602001906401000000008111156107a057600080fd5b8201836020820111156107b257600080fd5b803590602001918460208302840111640100000000831117156107d457600080fd5b919080806020026020016040519081016040528093929190818152602001838360200280828437600081840152601f19601f8201169050808301925050505050505091929192908035906020019064010000000081111561083457600080fd5b82018360208201111561084657600080fd5b8035906020019184602083028401116401000000008311171561086857600080fd5b919080806020026020016040519081016040528093929190818152602001838360200280828437600081840152601f19601f820116905080830192505050505050509192919290803590602001906401000000008111156108c857600080fd5b8201836020820111156108da57600080fd5b803590602001918460018302840111640100000000831117156108fc57600080fd5b91908080601f016020809104026020016040519081016040528093929190818152602001838380828437600081840152601f19601f820116905080830192505050505050509192919290505050611727565b60405180827bffffffffffffffffffffffffffffffffffffffffffffffffffffffff1916815260200191505060405180910390f35b6109af6004803603602081101561099957600080fd5b8101908080359060200190929190505050611788565b005b610a13600480360360408110156109c757600080fd5b81019080803573ffffffffffffffffffffffffffffffffffffffff169060200190929190803573ffffffffffffffffffffffffffffffffffffffff169060200190929190505050611943565b60405180821515815260200191505060405180910390f35b610b38600480360360a0811015610a4157600080fd5b81019080803573ffffffffffffffffffffffffffffffffffffffff169060200190929190803573ffffffffffffffffffffffffffffffffffffffff169060200190929190803590602001909291908035906020019092919080359060200190640100000000811115610ab257600080fd5b820183602082011115610ac457600080fd5b80359060200191846001830284011164010000000083111715610ae657600080fd5b91908080601f016020809104026020016040519081016040528093929190818152602001838380828437600081840152601f19601f8201169050808301925050505050505091929192905050506119d7565b60405180827bffffffffffffffffffffffffffffffffffffffffffffffffffffffff1916815260200191505060405180910390f35b610c7a600480360360a0811015610b8357600080fd5b81019080803573ffffffffffffffffffffffffffffffffffffffff169060200190929190803573ffffffffffffffffffffffffffffffffffffffff169060200190929190803590602001909291908035906020019092919080359060200190640100000000811115610bf457600080fd5b820183602082011115610c0657600080fd5b80359060200191846001830284011164010000000083111715610c2857600080fd5b91908080601f016020809104026020016040519081016040528093929190818152602001838380828437600081840152601f19601f820116905080830192505050505050509192919290505050611a08565b005b60008073ffffffffffffffffffffffffffffffffffffffff168373ffffffffffffffffffffffffffffffffffffffff161415610d03576040517f08c379a000000000000000000000000000000000000000000000000000000000815260040180806020018281038252602b815260200180612eb4602b913960400191505060405180910390fd5b6001600083815260200190815260200160002060008473ffffffffffffffffffffffffffffffffffffffff1673ffffffffffffffffffffffffffffffffffffffff16815260200190815260200160002054905092915050565b6000806000837bffffffffffffffffffffffffffffffffffffffffffffffffffffffff19167bffffffffffffffffffffffffffffffffffffffffffffffffffffffff1916815260200190815260200160002060009054906101000a900460ff169050919050565b606060038054600181600116156101000203166002900480601f016020809104026020016040519081016040528092919081815260200182805460018160011615610100020316600290048015610e5b5780601f10610e3057610100808354040283529160200191610e5b565b820191906000526020600020905b815481529060010190602001808311610e3e57829003601f168201915b50505050509050919050565b600080610e72612d53565b600560008681526020019081526020016000206040518060400160405290816000820160009054906101000a900473ffffffffffffffffffffffffffffffffffffffff1673ffffffffffffffffffffffffffffffffffffffff1673ffffffffffffffffffffffffffffffffffffffff16815260200160018201548152505090508060000151816020015192509250509250929050565b6000610f146004611d7d565b6000610f206004611d93565b9050610f3e3382600160405180602001604052806000815250611da1565b60405180604001604052803373ffffffffffffffffffffffffffffffffffffffff168152602001600a8152506005600083815260200190815260200160002060008201518160000160006101000a81548173ffffffffffffffffffffffffffffffffffffffff021916908373ffffffffffffffffffffffffffffffffffffffff160217905550602082015181600101559050508091505090565b8151835114611032576040517f08c379a00000000000000000000000000000000000000000000000000000000081526004018080602001828103825260288152602001806130226028913960400191505060405180910390fd5b600073ffffffffffffffffffffffffffffffffffffffff168473ffffffffffffffffffffffffffffffffffffffff1614156110b8576040517f08c379a0000000000000000000000000000000000000000000000000000000008152600401808060200182810382526025815260200180612f2c6025913960400191505060405180910390fd5b6110c0611fa4565b73ffffffffffffffffffffffffffffffffffffffff168573ffffffffffffffffffffffffffffffffffffffff161480611106575061110585611100611fa4565b611943565b5b61115b576040517f08c379a0000000000000000000000000000000000000000000000000000000008152600401808060200182810382526032815260200180612f516032913960400191505060405180910390fd5b6000611165611fa4565b9050611175818787878787611fac565b60005b845181101561134657600085828151811061118f57fe5b6020026020010151905060008583815181106111a757fe5b6020026020010151905061122e816040518060600160405280602a8152602001612fa6602a91396001600086815260200190815260200160002060008d73ffffffffffffffffffffffffffffffffffffffff1673ffffffffffffffffffffffffffffffffffffffff16815260200190815260200160002054611fb49092919063ffffffff16565b6001600084815260200190815260200160002060008b73ffffffffffffffffffffffffffffffffffffffff1673ffffffffffffffffffffffffffffffffffffffff168152602001908152602001600020819055506112e5816001600085815260200190815260200160002060008b73ffffffffffffffffffffffffffffffffffffffff1673ffffffffffffffffffffffffffffffffffffffff1681526020019081526020016000205461206e90919063ffffffff16565b6001600084815260200190815260200160002060008a73ffffffffffffffffffffffffffffffffffffffff1673ffffffffffffffffffffffffffffffffffffffff168152602001908152602001600020819055505050806001019050611178565b508473ffffffffffffffffffffffffffffffffffffffff168673ffffffffffffffffffffffffffffffffffffffff168273ffffffffffffffffffffffffffffffffffffffff167f4a39dc06d4c0dbc64b70af90fd698a233a518aa5d07e595d983b8c0526c8f7fb8787604051808060200180602001838103835285818151815260200191508051906020019060200280838360005b838110156113f65780820151818401526020810190506113db565b50505050905001838103825284818151815260200191508051906020019060200280838360005b8381101561143857808201518184015260208101905061141d565b5050505090500194505050505060405180910390a461145b8187878787876120f6565b505050505050565b606081518351146114bf576040517f08c379a0000000000000000000000000000000000000000000000000000000008152600401808060200182810382526029815260200180612ff96029913960400191505060405180910390fd5b6060835167ffffffffffffffff811180156114d957600080fd5b506040519080825280602002602001820160405280156115085781602001602082028036833780820191505090505b50905060005b845181101561156a5761154785828151811061152657fe5b602002602001015185838151811061153a57fe5b6020026020010151610c7c565b82828151811061155357fe5b60200260200101818152505080600101905061150e565b508091505092915050565b8173ffffffffffffffffffffffffffffffffffffffff16611594611fa4565b73ffffffffffffffffffffffffffffffffffffffff161415611601576040517f08c379a0000000000000000000000000000000000000000000000000000000008152600401808060200182810382526029815260200180612fd06029913960400191505060405180910390fd5b806002600061160e611fa4565b73ffffffffffffffffffffffffffffffffffffffff1673ffffffffffffffffffffffffffffffffffffffff16815260200190815260200160002060008473ffffffffffffffffffffffffffffffffffffffff1673ffffffffffffffffffffffffffffffffffffffff16815260200190815260200160002060006101000a81548160ff0219169083151502179055508173ffffffffffffffffffffffffffffffffffffffff166116bb611fa4565b73ffffffffffffffffffffffffffffffffffffffff167f17307eab39ab6107e8899845ad3d59bd9653f200f220920489ca2b5937696c318360405180821515815260200191505060405180910390a35050565b61171a33600180612485565b61172381611788565b5050565b600080600090505b8451811015611774576117678786838151811061174857fe5b6020026020010151600160405180602001604052806000815250611da1565b808060010191505061172f565b5063bc197c8160e01b905095945050505050565b60608167ffffffffffffffff811180156117a157600080fd5b506040519080825280602002602001820160405280156117d05781602001602082028036833780820191505090505b50905060608267ffffffffffffffff811180156117ec57600080fd5b5060405190808252806020026020018201604052801561181b5781602001602082028036833780820191505090505b50905060005b83811015611922576118336004611d7d565b61183d6004611d93565b83828151811061184957fe5b602002602001018181525050600182828151811061186357fe5b60200260200101818152505060405180604001604052803373ffffffffffffffffffffffffffffffffffffffff168152602001600a815250600560008584815181106118ab57fe5b6020026020010151815260200190815260200160002060008201518160000160006101000a81548173ffffffffffffffffffffffffffffffffffffffff021916908373ffffffffffffffffffffffffffffffffffffffff160217905550602082015181600101559050508080600101915050611821565b5061193e338383604051806020016040528060008152506126a1565b505050565b6000600260008473ffffffffffffffffffffffffffffffffffffffff1673ffffffffffffffffffffffffffffffffffffffff16815260200190815260200160002060008373ffffffffffffffffffffffffffffffffffffffff1673ffffffffffffffffffffffffffffffffffffffff16815260200190815260200160002060009054906101000a900460ff16905092915050565b60006119f58685600160405180602001604052806000815250611da1565b63f23a6e6160e01b905095945050505050565b600073ffffffffffffffffffffffffffffffffffffffff168473ffffffffffffffffffffffffffffffffffffffff161415611a8e576040517f08c379a0000000000000000000000000000000000000000000000000000000008152600401808060200182810382526025815260200180612f2c6025913960400191505060405180910390fd5b611a96611fa4565b73ffffffffffffffffffffffffffffffffffffffff168573ffffffffffffffffffffffffffffffffffffffff161480611adc5750611adb85611ad6611fa4565b611943565b5b611b31576040517f08c379a0000000000000000000000000000000000000000000000000000000008152600401808060200182810382526029815260200180612f036029913960400191505060405180910390fd5b6000611b3b611fa4565b9050611b5b818787611b4c886129c3565b611b55886129c3565b87611fac565b611bd8836040518060600160405280602a8152602001612fa6602a91396001600088815260200190815260200160002060008a73ffffffffffffffffffffffffffffffffffffffff1673ffffffffffffffffffffffffffffffffffffffff16815260200190815260200160002054611fb49092919063ffffffff16565b6001600086815260200190815260200160002060008873ffffffffffffffffffffffffffffffffffffffff1673ffffffffffffffffffffffffffffffffffffffff16815260200190815260200160002081905550611c8f836001600087815260200190815260200160002060008873ffffffffffffffffffffffffffffffffffffffff1673ffffffffffffffffffffffffffffffffffffffff1681526020019081526020016000205461206e90919063ffffffff16565b6001600086815260200190815260200160002060008773ffffffffffffffffffffffffffffffffffffffff1673ffffffffffffffffffffffffffffffffffffffff168152602001908152602001600020819055508473ffffffffffffffffffffffffffffffffffffffff168673ffffffffffffffffffffffffffffffffffffffff168273ffffffffffffffffffffffffffffffffffffffff167fc3d58168c5ae7397731d063d5bbf3d657854427343f4c083240f7aacaa2d0f628787604051808381526020018281526020019250505060405180910390a4611d75818787878787612a33565b505050505050565b6001816000016000828254019250508190555050565b600081600001549050919050565b600073ffffffffffffffffffffffffffffffffffffffff168473ffffffffffffffffffffffffffffffffffffffff161415611e27576040517f08c379a000000000000000000000000000000000000000000000000000000000815260040180806020018281038252602181526020018061304a6021913960400191505060405180910390fd5b6000611e31611fa4565b9050611e5281600087611e43886129c3565b611e4c886129c3565b87611fac565b611eb5836001600087815260200190815260200160002060008873ffffffffffffffffffffffffffffffffffffffff1673ffffffffffffffffffffffffffffffffffffffff1681526020019081526020016000205461206e90919063ffffffff16565b6001600086815260200190815260200160002060008773ffffffffffffffffffffffffffffffffffffffff1673ffffffffffffffffffffffffffffffffffffffff168152602001908152602001600020819055508473ffffffffffffffffffffffffffffffffffffffff16600073ffffffffffffffffffffffffffffffffffffffff168273ffffffffffffffffffffffffffffffffffffffff167fc3d58168c5ae7397731d063d5bbf3d657854427343f4c083240f7aacaa2d0f628787604051808381526020018281526020019250505060405180910390a4611f9d81600087878787612a33565b5050505050565b600033905090565b505050505050565b6000838311158290612061576040517f08c379a00000000000000000000000000000000000000000000000000000000081526004018080602001828103825283818151815260200191508051906020019080838360005b8381101561202657808201518184015260208101905061200b565b50505050905090810190601f1680156120535780820380516001836020036101000a031916815260200191505b509250505060405180910390fd5b5082840390509392505050565b6000808284019050838110156120ec576040517f08c379a000000000000000000000000000000000000000000000000000000000815260040180806020018281038252601b8152602001807f536166654d6174683a206164646974696f6e206f766572666c6f77000000000081525060200191505060405180910390fd5b8091505092915050565b6121158473ffffffffffffffffffffffffffffffffffffffff16612d40565b1561247d578373ffffffffffffffffffffffffffffffffffffffff1663bc197c8187878686866040518663ffffffff1660e01b8152600401808673ffffffffffffffffffffffffffffffffffffffff1681526020018573ffffffffffffffffffffffffffffffffffffffff168152602001806020018060200180602001848103845287818151815260200191508051906020019060200280838360005b838110156121cd5780820151818401526020810190506121b2565b50505050905001848103835286818151815260200191508051906020019060200280838360005b8381101561220f5780820151818401526020810190506121f4565b50505050905001848103825285818151815260200191508051906020019080838360005b8381101561224e578082015181840152602081019050612233565b50505050905090810190601f16801561227b5780820380516001836020036101000a031916815260200191505b5098505050505050505050602060405180830381600087803b1580156122a057600080fd5b505af19250505080156122d457506040513d60208110156122c057600080fd5b810190808051906020019092919050505060015b6123de576122e0612da1565b806122eb575061238d565b806040517f08c379a00000000000000000000000000000000000000000000000000000000081526004018080602001828103825283818151815260200191508051906020019080838360005b83811015612352578082015181840152602081019050612337565b50505050905090810190601f16801561237f5780820380516001836020036101000a031916815260200191505b509250505060405180910390fd5b6040517f08c379a0000000000000000000000000000000000000000000000000000000008152600401808060200182810382526034815260200180612e586034913960400191505060405180910390fd5b63bc197c8160e01b7bffffffffffffffffffffffffffffffffffffffffffffffffffffffff1916817bffffffffffffffffffffffffffffffffffffffffffffffffffffffff19161461247b576040517f08c379a0000000000000000000000000000000000000000000000000000000008152600401808060200182810382526028815260200180612e8c6028913960400191505060405180910390fd5b505b505050505050565b600073ffffffffffffffffffffffffffffffffffffffff168373ffffffffffffffffffffffffffffffffffffffff16141561250b576040517f08c379a0000000000000000000000000000000000000000000000000000000008152600401808060200182810382526023815260200180612f836023913960400191505060405180910390fd5b6000612515611fa4565b905061254581856000612527876129c3565b612530876129c3565b60405180602001604052806000815250611fac565b6125c282604051806060016040528060248152602001612edf602491396001600087815260200190815260200160002060008873ffffffffffffffffffffffffffffffffffffffff1673ffffffffffffffffffffffffffffffffffffffff16815260200190815260200160002054611fb49092919063ffffffff16565b6001600085815260200190815260200160002060008673ffffffffffffffffffffffffffffffffffffffff1673ffffffffffffffffffffffffffffffffffffffff16815260200190815260200160002081905550600073ffffffffffffffffffffffffffffffffffffffff168473ffffffffffffffffffffffffffffffffffffffff168273ffffffffffffffffffffffffffffffffffffffff167fc3d58168c5ae7397731d063d5bbf3d657854427343f4c083240f7aacaa2d0f628686604051808381526020018281526020019250505060405180910390a450505050565b600073ffffffffffffffffffffffffffffffffffffffff168473ffffffffffffffffffffffffffffffffffffffff161415612727576040517f08c379a000000000000000000000000000000000000000000000000000000000815260040180806020018281038252602181526020018061304a6021913960400191505060405180910390fd5b8151835114612781576040517f08c379a00000000000000000000000000000000000000000000000000000000081526004018080602001828103825260288152602001806130226028913960400191505060405180910390fd5b600061278b611fa4565b905061279c81600087878787611fac565b60005b84518110156128a557612831600160008784815181106127bb57fe5b6020026020010151815260200190815260200160002060008873ffffffffffffffffffffffffffffffffffffffff1673ffffffffffffffffffffffffffffffffffffffff1681526020019081526020016000205485838151811061281b57fe5b602002602001015161206e90919063ffffffff16565b6001600087848151811061284157fe5b6020026020010151815260200190815260200160002060008873ffffffffffffffffffffffffffffffffffffffff1673ffffffffffffffffffffffffffffffffffffffff16815260200190815260200160002081905550808060010191505061279f565b508473ffffffffffffffffffffffffffffffffffffffff16600073ffffffffffffffffffffffffffffffffffffffff168273ffffffffffffffffffffffffffffffffffffffff167f4a39dc06d4c0dbc64b70af90fd698a233a518aa5d07e595d983b8c0526c8f7fb8787604051808060200180602001838103835285818151815260200191508051906020019060200280838360005b8381101561295657808201518184015260208101905061293b565b50505050905001838103825284818151815260200191508051906020019060200280838360005b8381101561299857808201518184015260208101905061297d565b5050505090500194505050505060405180910390a46129bc816000878787876120f6565b5050505050565b606080600167ffffffffffffffff811180156129de57600080fd5b50604051908082528060200260200182016040528015612a0d5781602001602082028036833780820191505090505b5090508281600081518110612a1e57fe5b60200260200101818152505080915050919050565b612a528473ffffffffffffffffffffffffffffffffffffffff16612d40565b15612d38578373ffffffffffffffffffffffffffffffffffffffff1663f23a6e6187878686866040518663ffffffff1660e01b8152600401808673ffffffffffffffffffffffffffffffffffffffff1681526020018573ffffffffffffffffffffffffffffffffffffffff16815260200184815260200183815260200180602001828103825283818151815260200191508051906020019080838360005b83811015612b0b578082015181840152602081019050612af0565b50505050905090810190601f168015612b385780820380516001836020036101000a031916815260200191505b509650505050505050602060405180830381600087803b158015612b5b57600080fd5b505af1925050508015612b8f57506040513d6020811015612b7b57600080fd5b810190808051906020019092919050505060015b612c9957612b9b612da1565b80612ba65750612c48565b806040517f08c379a00000000000000000000000000000000000000000000000000000000081526004018080602001828103825283818151815260200191508051906020019080838360005b83811015612c0d578082015181840152602081019050612bf2565b50505050905090810190601f168015612c3a5780820380516001836020036101000a031916815260200191505b509250505060405180910390fd5b6040517f08c379a0000000000000000000000000000000000000000000000000000000008152600401808060200182810382526034815260200180612e586034913960400191505060405180910390fd5b63f23a6e6160e01b7bffffffffffffffffffffffffffffffffffffffffffffffffffffffff1916817bffffffffffffffffffffffffffffffffffffffffffffffffffffffff191614612d36576040517f08c379a0000000000000000000000000000000000000000000000000000000008152600401808060200182810382526028815260200180612e8c6028913960400191505060405180910390fd5b505b505050505050565b600080823b905060008111915050919050565b6040518060400160405280600073ffffffffffffffffffffffffffffffffffffffff168152602001600081525090565b6000601f19601f8301169050919050565b60008160e01c9050919050565b600060443d1015612db157612e54565b60046000803e612dc2600051612d94565b6308c379a08114612dd35750612e54565b60405160043d036004823e80513d602482011167ffffffffffffffff82111715612dff57505050612e54565b808201805167ffffffffffffffff811115612e1e575050505050612e54565b8060208301013d8501811115612e3957505050505050612e54565b612e4282612d83565b60208401016040528296505050505050505b9056fe455243313135353a207472616e7366657220746f206e6f6e2045524331313535526563656976657220696d706c656d656e746572455243313135353a204552433131353552656365697665722072656a656374656420746f6b656e73455243313135353a2062616c616e636520717565727920666f7220746865207a65726f2061646472657373455243313135353a206275726e20616d6f756e7420657863656564732062616c616e6365455243313135353a2063616c6c6572206973206e6f74206f776e6572206e6f7220617070726f766564455243313135353a207472616e7366657220746f20746865207a65726f2061646472657373455243313135353a207472616e736665722063616c6c6572206973206e6f74206f776e6572206e6f7220617070726f766564455243313135353a206275726e2066726f6d20746865207a65726f2061646472657373455243313135353a20696e73756666696369656e742062616c616e636520666f72207472616e73666572455243313135353a2073657474696e6720617070726f76616c2073746174757320666f722073656c66455243313135353a206163636f756e747320616e6420696473206c656e677468206d69736d61746368455243313135353a2069647320616e6420616d6f756e7473206c656e677468206d69736d61746368455243313135353a206d696e7420746f20746865207a65726f2061646472657373a264697066735822122049772cf7172a7cf25c8b41e550f3fe66978e8fdd838e88759147fc38bf037d0264736f6c63430007000033",
  "immutableReferences": {},
  "source": "// SPDX-License-Identifier: MIT\r\npragma solidity ^0.7.0;\r\n\r\nimport \"@openzeppelin/contracts/token/ERC1155/ERC1155.sol\";\r\nimport \"@openzeppelin/contracts/token/ERC1155/ERC1155Receiver.sol\";\r\nimport \"./ERC2981.sol\";\r\nimport \"@openzeppelin/contracts/utils/Counters.sol\";\r\n\r\ncontract Items is ERC1155, ERC1155Receiver, ERC2981 {\r\n    using Counters for Counters.Counter;\r\n    Counters.Counter private _tokenIds;\r\n\r\n    struct RoyaltyInfo {\r\n        address owner;\r\n        uint256 salePrice;\r\n    }\r\n\r\n    // mapping for tokenHolder to sale price\r\n    mapping(uint256 => RoyaltyInfo) private _royalties;\r\n\r\n    constructor() ERC1155(\"https://ipfs/{id}.json\") {}\r\n\r\n    function tokenSplit(uint256 tokenId, uint256 subTokenCount) public {\r\n        // burn the source token\r\n        _burn(msg.sender, 1, 1);\r\n        addItems(subTokenCount);\r\n    }\r\n\r\n    function royaltyInfo(uint256 _tokenId, uint256 _salePrice)\r\n        external\r\n        view\r\n        override\r\n        returns (address receiver, uint256 royaltyAmount)\r\n    {\r\n        RoyaltyInfo memory _royalty = _royalties[_tokenId];\r\n        return (_royalty.owner, _royalty.salePrice);\r\n    }\r\n\r\n    function addItem() public returns (uint256) {\r\n        _tokenIds.increment();\r\n\r\n        uint256 newItemId = _tokenIds.current();\r\n        _mint(msg.sender, newItemId, 1, \"\");\r\n\r\n        _royalties[newItemId] = RoyaltyInfo(msg.sender, 10);\r\n\r\n        return newItemId;\r\n    }\r\n\r\n    function addItems(uint256 tokenCount) public {\r\n        uint256[] memory tokenIds = new uint256[](tokenCount);\r\n        uint256[] memory tokenAmounts = new uint256[](tokenCount);\r\n\r\n        for (uint256 i = 0; i < tokenCount; i++) {\r\n            _tokenIds.increment();\r\n            tokenIds[i] = _tokenIds.current();\r\n            tokenAmounts[i] = 1;\r\n\r\n            _royalties[tokenIds[i]] = RoyaltyInfo(msg.sender, 10);\r\n        }\r\n\r\n        _mintBatch(msg.sender, tokenIds, tokenAmounts, \"\");\r\n    }\r\n\r\n    function onERC1155Received(\r\n        address owner,\r\n        address,\r\n        uint256 id,\r\n        uint256,\r\n        bytes memory\r\n    ) public virtual override returns (bytes4) {\r\n        _mint(owner, id, 1, \"\");\r\n        return this.onERC1155Received.selector;\r\n    }\r\n\r\n    function onERC1155BatchReceived(\r\n        address operator,\r\n        address from,\r\n        uint256[] memory ids,\r\n        uint256[] memory values,\r\n        bytes memory data\r\n    ) public virtual override returns (bytes4) {\r\n        for (uint256 i = 0; i < ids.length; i++) {\r\n            _mint(operator, ids[i], 1, \"\");\r\n        }\r\n        return this.onERC1155BatchReceived.selector;\r\n    }\r\n}\r\n",
  "sourcePath": "C:/Users/caleteet/source/Public/HackMoney/contracts/Items.sol",
  "compiler": {
    "name": "solc",
    "version": "0.7.0+commit.9e61f92b.Emscripten.clang"
  },
  "schemaVersion": "3.4.1",
  "updatedAt": "2021-07-05T16:18:31.141Z",
  "networkType": "ethereum",
  "devdoc": {
    "kind": "dev",
    "methods": {
      "balanceOf(address,uint256)": {
        "details": "See {IERC1155-balanceOf}. Requirements: - `account` cannot be the zero address."
      },
      "balanceOfBatch(address[],uint256[])": {
        "details": "See {IERC1155-balanceOfBatch}. Requirements: - `accounts` and `ids` must have the same length."
      },
      "isApprovedForAll(address,address)": {
        "details": "See {IERC1155-isApprovedForAll}."
      },
      "onERC1155BatchReceived(address,address,uint256[],uint256[],bytes)": {
        "details": "Handles the receipt of a multiple ERC1155 token types. This function is called at the end of a `safeBatchTransferFrom` after the balances have been updated. To accept the transfer(s), this must return `bytes4(keccak256(\"onERC1155BatchReceived(address,address,uint256[],uint256[],bytes)\"))` (i.e. 0xbc197c81, or its own function selector).",
        "params": {
          "data": "Additional data with no specified format",
          "from": "The address which previously owned the token",
          "ids": "An array containing ids of each token being transferred (order and length must match values array)",
          "operator": "The address which initiated the batch transfer (i.e. msg.sender)",
          "values": "An array containing amounts of each token being transferred (order and length must match ids array)"
        },
        "returns": {
          "_0": "`bytes4(keccak256(\"onERC1155BatchReceived(address,address,uint256[],uint256[],bytes)\"))` if transfer is allowed"
        }
      },
      "royaltyInfo(uint256,uint256)": {
        "params": {
          "_salePrice": "- the sale price of the NFT asset specified by _tokenId",
          "_tokenId": "- the NFT asset queried for royalty information"
        },
        "returns": {
          "receiver": "- address of who should be sent the royalty payment",
          "royaltyAmount": "- the royalty payment amount for _salePrice"
        }
      },
      "safeBatchTransferFrom(address,address,uint256[],uint256[],bytes)": {
        "details": "See {IERC1155-safeBatchTransferFrom}."
      },
      "safeTransferFrom(address,address,uint256,uint256,bytes)": {
        "details": "See {IERC1155-safeTransferFrom}."
      },
      "setApprovalForAll(address,bool)": {
        "details": "See {IERC1155-setApprovalForAll}."
      },
      "supportsInterface(bytes4)": {
        "details": "See {IERC165-supportsInterface}. Time complexity O(1), guaranteed to always use less than 30 000 gas."
      },
      "uri(uint256)": {
        "details": "See {IERC1155MetadataURI-uri}. This implementation returns the same URI for *all* token types. It relies on the token type ID substitution mechanism https://eips.ethereum.org/EIPS/eip-1155#metadata[defined in the EIP]. Clients calling this function must replace the `\\{id\\}` substring with the actual token type ID."
      }
    },
    "version": 1
  },
  "userdoc": {
    "kind": "user",
    "methods": {
      "royaltyInfo(uint256,uint256)": {
        "notice": "Called with the sale price to determine how much royalty         is owed and to whom."
      }
    },
    "version": 1
  }
}