{
  "contractName": "Sample",
  "abi": [
    {
      "inputs": [],
      "name": "name",
      "outputs": [
        {
          "internalType": "string",
          "name": "",
          "type": "string"
        }
      ],
      "stateMutability": "view",
      "type": "function"
    },
    {
      "inputs": [
        {
          "internalType": "string",
          "name": "_name",
          "type": "string"
        }
      ],
      "name": "setName",
      "outputs": [],
      "stateMutability": "nonpayable",
      "type": "function"
    }
  ],
  "bytecode": "0x60806040526040518060400160405280600581526020017f4a616d65730000000000000000000000000000000000000000000000000000008152506000908051906020019061004f929190610062565b5034801561005c57600080fd5b506100ff565b828054600181600116156101000203166002900490600052602060002090601f016020900481019282601f106100a357805160ff19168380011785556100d1565b828001600101855582156100d1579182015b828111156100d05782518255916020019190600101906100b5565b5b5090506100de91906100e2565b5090565b5b808211156100fb5760008160009055506001016100e3565b5090565b6103048061010e6000396000f3fe608060405234801561001057600080fd5b50600436106100365760003560e01c806306fdde031461003b578063c47f0027146100be575b600080fd5b610043610179565b6040518080602001828103825283818151815260200191508051906020019080838360005b83811015610083578082015181840152602081019050610068565b50505050905090810190601f1680156100b05780820380516001836020036101000a031916815260200191505b509250505060405180910390f35b610177600480360360208110156100d457600080fd5b81019080803590602001906401000000008111156100f157600080fd5b82018360208201111561010357600080fd5b8035906020019184600183028401116401000000008311171561012557600080fd5b91908080601f016020809104026020016040519081016040528093929190818152602001838380828437600081840152601f19601f820116905080830192505050505050509192919290505050610217565b005b60008054600181600116156101000203166002900480601f01602080910402602001604051908101604052809291908181526020018280546001816001161561010002031660029004801561020f5780601f106101e45761010080835404028352916020019161020f565b820191906000526020600020905b8154815290600101906020018083116101f257829003601f168201915b505050505081565b806000908051906020019061022d929190610231565b5050565b828054600181600116156101000203166002900490600052602060002090601f016020900481019282601f1061027257805160ff19168380011785556102a0565b828001600101855582156102a0579182015b8281111561029f578251825591602001919060010190610284565b5b5090506102ad91906102b1565b5090565b5b808211156102ca5760008160009055506001016102b2565b509056fea264697066735822122068b9dd00ea311b1321b00a8b616c34155816752529102b41889fffcb032ed9c964736f6c63430007000033",
  "immutableReferences": {},
  "source": "// SPDX-License-Identifier: MIT\r\npragma solidity >=0.4.22 <0.9.0;\r\n\r\ncontract Sample {\r\n    string public name = \"James\";\r\n\r\n    function setName(string memory _name) public {\r\n        name = _name;\r\n    }\r\n}\r\n",
  "sourcePath": "C:/Users/Administrator/Documents/Code/HackMoney/src/contracts/Sample.sol",
  "compiler": {
    "name": "solc",
    "version": "0.7.0+commit.9e61f92b.Emscripten.clang"
  },
  "schemaVersion": "3.3.4",
  "updatedAt": "2021-07-03T18:15:06.878Z",
  "devdoc": {
    "kind": "dev",
    "methods": {},
    "version": 1
  },
  "userdoc": {
    "kind": "user",
    "methods": {},
    "version": 1
  }
}