{
  "contractName": "Items",
  "abi": [
    {
      "inputs": [],
      "stateMutability": "nonpayable",
      "type": "constructor"
    },
    {
      "anonymous": false,
      "inputs": [
        {
          "indexed": true,
          "internalType": "address",
          "name": "account",
          "type": "address"
        },
        {
          "indexed": true,
          "internalType": "address",
          "name": "operator",
          "type": "address"
        },
        {
          "indexed": false,
          "internalType": "bool",
          "name": "approved",
          "type": "bool"
        }
      ],
      "name": "ApprovalForAll",
      "type": "event"
    },
    {
      "anonymous": false,
      "inputs": [
        {
          "indexed": true,
          "internalType": "address",
          "name": "operator",
          "type": "address"
        },
        {
          "indexed": true,
          "internalType": "address",
          "name": "from",
          "type": "address"
        },
        {
          "indexed": true,
          "internalType": "address",
          "name": "to",
          "type": "address"
        },
        {
          "indexed": false,
          "internalType": "uint256[]",
          "name": "ids",
          "type": "uint256[]"
        },
        {
          "indexed": false,
          "internalType": "uint256[]",
          "name": "values",
          "type": "uint256[]"
        }
      ],
      "name": "TransferBatch",
      "type": "event"
    },
    {
      "anonymous": false,
      "inputs": [
        {
          "indexed": true,
          "internalType": "address",
          "name": "operator",
          "type": "address"
        },
        {
          "indexed": true,
          "internalType": "address",
          "name": "from",
          "type": "address"
        },
        {
          "indexed": true,
          "internalType": "address",
          "name": "to",
          "type": "address"
        },
        {
          "indexed": false,
          "internalType": "uint256",
          "name": "id",
          "type": "uint256"
        },
        {
          "indexed": false,
          "internalType": "uint256",
          "name": "value",
          "type": "uint256"
        }
      ],
      "name": "TransferSingle",
      "type": "event"
    },
    {
      "anonymous": false,
      "inputs": [
        {
          "indexed": false,
          "internalType": "string",
          "name": "value",
          "type": "string"
        },
        {
          "indexed": true,
          "internalType": "uint256",
          "name": "id",
          "type": "uint256"
        }
      ],
      "name": "URI",
      "type": "event"
    },
    {
      "inputs": [
        {
          "internalType": "address",
          "name": "account",
          "type": "address"
        },
        {
          "internalType": "uint256",
          "name": "id",
          "type": "uint256"
        }
      ],
      "name": "balanceOf",
      "outputs": [
        {
          "internalType": "uint256",
          "name": "",
          "type": "uint256"
        }
      ],
      "stateMutability": "view",
      "type": "function",
      "constant": true
    },
    {
      "inputs": [
        {
          "internalType": "address[]",
          "name": "accounts",
          "type": "address[]"
        },
        {
          "internalType": "uint256[]",
          "name": "ids",
          "type": "uint256[]"
        }
      ],
      "name": "balanceOfBatch",
      "outputs": [
        {
          "internalType": "uint256[]",
          "name": "",
          "type": "uint256[]"
        }
      ],
      "stateMutability": "view",
      "type": "function",
      "constant": true
    },
    {
      "inputs": [
        {
          "internalType": "address",
          "name": "account",
          "type": "address"
        },
        {
          "internalType": "address",
          "name": "operator",
          "type": "address"
        }
      ],
      "name": "isApprovedForAll",
      "outputs": [
        {
          "internalType": "bool",
          "name": "",
          "type": "bool"
        }
      ],
      "stateMutability": "view",
      "type": "function",
      "constant": true
    },
    {
      "inputs": [
        {
          "internalType": "address",
          "name": "from",
          "type": "address"
        },
        {
          "internalType": "address",
          "name": "to",
          "type": "address"
        },
        {
          "internalType": "uint256[]",
          "name": "ids",
          "type": "uint256[]"
        },
        {
          "internalType": "uint256[]",
          "name": "amounts",
          "type": "uint256[]"
        },
        {
          "internalType": "bytes",
          "name": "data",
          "type": "bytes"
        }
      ],
      "name": "safeBatchTransferFrom",
      "outputs": [],
      "stateMutability": "nonpayable",
      "type": "function"
    },
    {
      "inputs": [
        {
          "internalType": "address",
          "name": "from",
          "type": "address"
        },
        {
          "internalType": "address",
          "name": "to",
          "type": "address"
        },
        {
          "internalType": "uint256",
          "name": "id",
          "type": "uint256"
        },
        {
          "internalType": "uint256",
          "name": "amount",
          "type": "uint256"
        },
        {
          "internalType": "bytes",
          "name": "data",
          "type": "bytes"
        }
      ],
      "name": "safeTransferFrom",
      "outputs": [],
      "stateMutability": "nonpayable",
      "type": "function"
    },
    {
      "inputs": [
        {
          "internalType": "address",
          "name": "operator",
          "type": "address"
        },
        {
          "internalType": "bool",
          "name": "approved",
          "type": "bool"
        }
      ],
      "name": "setApprovalForAll",
      "outputs": [],
      "stateMutability": "nonpayable",
      "type": "function"
    },
    {
      "inputs": [
        {
          "internalType": "bytes4",
          "name": "interfaceId",
          "type": "bytes4"
        }
      ],
      "name": "supportsInterface",
      "outputs": [
        {
          "internalType": "bool",
          "name": "",
          "type": "bool"
        }
      ],
      "stateMutability": "view",
      "type": "function",
      "constant": true
    },
    {
      "inputs": [
        {
          "internalType": "uint256",
          "name": "",
          "type": "uint256"
        }
      ],
      "name": "uri",
      "outputs": [
        {
          "internalType": "string",
          "name": "",
          "type": "string"
        }
      ],
      "stateMutability": "view",
      "type": "function",
      "constant": true
    },
    {
      "inputs": [],
      "name": "addItem",
      "outputs": [
        {
          "internalType": "uint256",
          "name": "",
          "type": "uint256"
        }
      ],
      "stateMutability": "nonpayable",
      "type": "function"
    },
    {
      "inputs": [
        {
          "internalType": "address",
          "name": "owner",
          "type": "address"
        },
        {
          "internalType": "address",
          "name": "",
          "type": "address"
        },
        {
          "internalType": "uint256",
          "name": "id",
          "type": "uint256"
        },
        {
          "internalType": "uint256",
          "name": "",
          "type": "uint256"
        },
        {
          "internalType": "bytes",
          "name": "",
          "type": "bytes"
        }
      ],
      "name": "onERC1155Received",
      "outputs": [
        {
          "internalType": "bytes4",
          "name": "",
          "type": "bytes4"
        }
      ],
      "stateMutability": "nonpayable",
      "type": "function"
    },
    {
      "inputs": [
        {
          "internalType": "address",
          "name": "operator",
          "type": "address"
        },
        {
          "internalType": "address",
          "name": "from",
          "type": "address"
        },
        {
          "internalType": "uint256[]",
          "name": "ids",
          "type": "uint256[]"
        },
        {
          "internalType": "uint256[]",
          "name": "values",
          "type": "uint256[]"
        },
        {
          "internalType": "bytes",
          "name": "data",
          "type": "bytes"
        }
      ],
      "name": "onERC1155BatchReceived",
      "outputs": [
        {
          "internalType": "bytes4",
          "name": "",
          "type": "bytes4"
        }
      ],
      "stateMutability": "nonpayable",
      "type": "function"
    }
  ],
  "bytecode": "0x60806040523480156200001157600080fd5b506040518060400160405280601681526020017f68747470733a2f2f697066732f7b69647d2e6a736f6e00000000000000000000815250620000606301ffc9a760e01b620000c960201b60201c565b6200007181620001d260201b60201c565b6200008963d9b67a2660e01b620000c960201b60201c565b620000a1630e89341c60e01b620000c960201b60201c565b50620000c363bc197c8160e01b63f23a6e6160e01b18620000c960201b60201c565b62000294565b63ffffffff60e01b817bffffffffffffffffffffffffffffffffffffffffffffffffffffffff1916141562000166576040517f08c379a000000000000000000000000000000000000000000000000000000000815260040180806020018281038252601c8152602001807f4552433136353a20696e76616c696420696e746572666163652069640000000081525060200191505060405180910390fd5b6001600080837bffffffffffffffffffffffffffffffffffffffffffffffffffffffff19167bffffffffffffffffffffffffffffffffffffffffffffffffffffffff1916815260200190815260200160002060006101000a81548160ff02191690831515021790555050565b8060039080519060200190620001ea929190620001ee565b5050565b828054600181600116156101000203166002900490600052602060002090601f016020900481019282601f106200023157805160ff191683800117855562000262565b8280016001018555821562000262579182015b828111156200026157825182559160200191906001019062000244565b5b50905062000271919062000275565b5090565b5b808211156200029057600081600090555060010162000276565b5090565b6126d380620002a46000396000f3fe608060405234801561001057600080fd5b50600436106100a85760003560e01c80634e1273f4116100715780634e1273f41461045a578063a22cb465146105fb578063bc197c811461064b578063e985e9c5146108a1578063f23a6e611461091b578063f242432a14610a5d576100a8565b8062fdd58e146100ad57806301ffc9a71461010f5780630e89341c146101725780632b907700146102195780632eb2c2d614610237575b600080fd5b6100f9600480360360408110156100c357600080fd5b81019080803573ffffffffffffffffffffffffffffffffffffffff16906020019092919080359060200190929190505050610b6c565b6040518082815260200191505060405180910390f35b61015a6004803603602081101561012557600080fd5b8101908080357bffffffffffffffffffffffffffffffffffffffffffffffffffffffff19169060200190929190505050610c4c565b60405180821515815260200191505060405180910390f35b61019e6004803603602081101561018857600080fd5b8101908080359060200190929190505050610cb3565b6040518080602001828103825283818151815260200191508051906020019080838360005b838110156101de5780820151818401526020810190506101c3565b50505050905090810190601f16801561020b5780820380516001836020036101000a031916815260200191505b509250505060405180910390f35b610221610d57565b6040518082815260200191505060405180910390f35b610458600480360360a081101561024d57600080fd5b81019080803573ffffffffffffffffffffffffffffffffffffffff169060200190929190803573ffffffffffffffffffffffffffffffffffffffff169060200190929190803590602001906401000000008111156102aa57600080fd5b8201836020820111156102bc57600080fd5b803590602001918460208302840111640100000000831117156102de57600080fd5b919080806020026020016040519081016040528093929190818152602001838360200280828437600081840152601f19601f8201169050808301925050505050505091929192908035906020019064010000000081111561033e57600080fd5b82018360208201111561035057600080fd5b8035906020019184602083028401116401000000008311171561037257600080fd5b919080806020026020016040519081016040528093929190818152602001838360200280828437600081840152601f19601f820116905080830192505050505050509192919290803590602001906401000000008111156103d257600080fd5b8201836020820111156103e457600080fd5b8035906020019184600183028401116401000000008311171561040657600080fd5b91908080601f016020809104026020016040519081016040528093929190818152602001838380828437600081840152601f19601f820116905080830192505050505050509192919290505050610d94565b005b6105a46004803603604081101561047057600080fd5b810190808035906020019064010000000081111561048d57600080fd5b82018360208201111561049f57600080fd5b803590602001918460208302840111640100000000831117156104c157600080fd5b919080806020026020016040519081016040528093929190818152602001838360200280828437600081840152601f19601f8201169050808301925050505050505091929192908035906020019064010000000081111561052157600080fd5b82018360208201111561053357600080fd5b8035906020019184602083028401116401000000008311171561055557600080fd5b919080806020026020016040519081016040528093929190818152602001838360200280828437600081840152601f19601f82011690508083019250505050505050919291929050505061121f565b6040518080602001828103825283818151815260200191508051906020019060200280838360005b838110156105e75780820151818401526020810190506105cc565b505050509050019250505060405180910390f35b6106496004803603604081101561061157600080fd5b81019080803573ffffffffffffffffffffffffffffffffffffffff169060200190929190803515159060200190929190505050611331565b005b61086c600480360360a081101561066157600080fd5b81019080803573ffffffffffffffffffffffffffffffffffffffff169060200190929190803573ffffffffffffffffffffffffffffffffffffffff169060200190929190803590602001906401000000008111156106be57600080fd5b8201836020820111156106d057600080fd5b803590602001918460208302840111640100000000831117156106f257600080fd5b919080806020026020016040519081016040528093929190818152602001838360200280828437600081840152601f19601f8201169050808301925050505050505091929192908035906020019064010000000081111561075257600080fd5b82018360208201111561076457600080fd5b8035906020019184602083028401116401000000008311171561078657600080fd5b919080806020026020016040519081016040528093929190818152602001838360200280828437600081840152601f19601f820116905080830192505050505050509192919290803590602001906401000000008111156107e657600080fd5b8201836020820111156107f857600080fd5b8035906020019184600183028401116401000000008311171561081a57600080fd5b91908080601f016020809104026020016040519081016040528093929190818152602001838380828437600081840152601f19601f8201169050808301925050505050505091929192905050506114ca565b60405180827bffffffffffffffffffffffffffffffffffffffffffffffffffffffff1916815260200191505060405180910390f35b610903600480360360408110156108b757600080fd5b81019080803573ffffffffffffffffffffffffffffffffffffffff169060200190929190803573ffffffffffffffffffffffffffffffffffffffff16906020019092919050505061152b565b60405180821515815260200191505060405180910390f35b610a28600480360360a081101561093157600080fd5b81019080803573ffffffffffffffffffffffffffffffffffffffff169060200190929190803573ffffffffffffffffffffffffffffffffffffffff1690602001909291908035906020019092919080359060200190929190803590602001906401000000008111156109a257600080fd5b8201836020820111156109b457600080fd5b803590602001918460018302840111640100000000831117156109d657600080fd5b91908080601f016020809104026020016040519081016040528093929190818152602001838380828437600081840152601f19601f8201169050808301925050505050505091929192905050506115bf565b60405180827bffffffffffffffffffffffffffffffffffffffffffffffffffffffff1916815260200191505060405180910390f35b610b6a600480360360a0811015610a7357600080fd5b81019080803573ffffffffffffffffffffffffffffffffffffffff169060200190929190803573ffffffffffffffffffffffffffffffffffffffff169060200190929190803590602001909291908035906020019092919080359060200190640100000000811115610ae457600080fd5b820183602082011115610af657600080fd5b80359060200191846001830284011164010000000083111715610b1857600080fd5b91908080601f016020809104026020016040519081016040528093929190818152602001838380828437600081840152601f19601f8201169050808301925050505050505091929192905050506115f0565b005b60008073ffffffffffffffffffffffffffffffffffffffff168373ffffffffffffffffffffffffffffffffffffffff161415610bf3576040517f08c379a000000000000000000000000000000000000000000000000000000000815260040180806020018281038252602b81526020018061252e602b913960400191505060405180910390fd5b6001600083815260200190815260200160002060008473ffffffffffffffffffffffffffffffffffffffff1673ffffffffffffffffffffffffffffffffffffffff16815260200190815260200160002054905092915050565b6000806000837bffffffffffffffffffffffffffffffffffffffffffffffffffffffff19167bffffffffffffffffffffffffffffffffffffffffffffffffffffffff1916815260200190815260200160002060009054906101000a900460ff169050919050565b606060038054600181600116156101000203166002900480601f016020809104026020016040519081016040528092919081815260200182805460018160011615610100020316600290048015610d4b5780601f10610d2057610100808354040283529160200191610d4b565b820191906000526020600020905b815481529060010190602001808311610d2e57829003601f168201915b50505050509050919050565b6000610d636004611965565b6000610d6f600461197b565b9050610d8d3382600160405180602001604052806000815250611989565b8091505090565b8151835114610dee576040517f08c379a00000000000000000000000000000000000000000000000000000000081526004018080602001828103825260288152602001806126556028913960400191505060405180910390fd5b600073ffffffffffffffffffffffffffffffffffffffff168473ffffffffffffffffffffffffffffffffffffffff161415610e74576040517f08c379a00000000000000000000000000000000000000000000000000000000081526004018080602001828103825260258152602001806125826025913960400191505060405180910390fd5b610e7c611b8c565b73ffffffffffffffffffffffffffffffffffffffff168573ffffffffffffffffffffffffffffffffffffffff161480610ec25750610ec185610ebc611b8c565b61152b565b5b610f17576040517f08c379a00000000000000000000000000000000000000000000000000000000081526004018080602001828103825260328152602001806125a76032913960400191505060405180910390fd5b6000610f21611b8c565b9050610f31818787878787611b94565b60005b8451811015611102576000858281518110610f4b57fe5b602002602001015190506000858381518110610f6357fe5b60200260200101519050610fea816040518060600160405280602a81526020016125d9602a91396001600086815260200190815260200160002060008d73ffffffffffffffffffffffffffffffffffffffff1673ffffffffffffffffffffffffffffffffffffffff16815260200190815260200160002054611b9c9092919063ffffffff16565b6001600084815260200190815260200160002060008b73ffffffffffffffffffffffffffffffffffffffff1673ffffffffffffffffffffffffffffffffffffffff168152602001908152602001600020819055506110a1816001600085815260200190815260200160002060008b73ffffffffffffffffffffffffffffffffffffffff1673ffffffffffffffffffffffffffffffffffffffff16815260200190815260200160002054611c5690919063ffffffff16565b6001600084815260200190815260200160002060008a73ffffffffffffffffffffffffffffffffffffffff1673ffffffffffffffffffffffffffffffffffffffff168152602001908152602001600020819055505050806001019050610f34565b508473ffffffffffffffffffffffffffffffffffffffff168673ffffffffffffffffffffffffffffffffffffffff168273ffffffffffffffffffffffffffffffffffffffff167f4a39dc06d4c0dbc64b70af90fd698a233a518aa5d07e595d983b8c0526c8f7fb8787604051808060200180602001838103835285818151815260200191508051906020019060200280838360005b838110156111b2578082015181840152602081019050611197565b50505050905001838103825284818151815260200191508051906020019060200280838360005b838110156111f45780820151818401526020810190506111d9565b5050505090500194505050505060405180910390a4611217818787878787611cde565b505050505050565b6060815183511461127b576040517f08c379a000000000000000000000000000000000000000000000000000000000815260040180806020018281038252602981526020018061262c6029913960400191505060405180910390fd5b6060835167ffffffffffffffff8111801561129557600080fd5b506040519080825280602002602001820160405280156112c45781602001602082028036833780820191505090505b50905060005b8451811015611326576113038582815181106112e257fe5b60200260200101518583815181106112f657fe5b6020026020010151610b6c565b82828151811061130f57fe5b6020026020010181815250508060010190506112ca565b508091505092915050565b8173ffffffffffffffffffffffffffffffffffffffff16611350611b8c565b73ffffffffffffffffffffffffffffffffffffffff1614156113bd576040517f08c379a00000000000000000000000000000000000000000000000000000000081526004018080602001828103825260298152602001806126036029913960400191505060405180910390fd5b80600260006113ca611b8c565b73ffffffffffffffffffffffffffffffffffffffff1673ffffffffffffffffffffffffffffffffffffffff16815260200190815260200160002060008473ffffffffffffffffffffffffffffffffffffffff1673ffffffffffffffffffffffffffffffffffffffff16815260200190815260200160002060006101000a81548160ff0219169083151502179055508173ffffffffffffffffffffffffffffffffffffffff16611477611b8c565b73ffffffffffffffffffffffffffffffffffffffff167f17307eab39ab6107e8899845ad3d59bd9653f200f220920489ca2b5937696c318360405180821515815260200191505060405180910390a35050565b600080600090505b84518110156115175761150a878683815181106114eb57fe5b6020026020010151600160405180602001604052806000815250611989565b80806001019150506114d2565b5063bc197c8160e01b905095945050505050565b6000600260008473ffffffffffffffffffffffffffffffffffffffff1673ffffffffffffffffffffffffffffffffffffffff16815260200190815260200160002060008373ffffffffffffffffffffffffffffffffffffffff1673ffffffffffffffffffffffffffffffffffffffff16815260200190815260200160002060009054906101000a900460ff16905092915050565b60006115dd8685600160405180602001604052806000815250611989565b63f23a6e6160e01b905095945050505050565b600073ffffffffffffffffffffffffffffffffffffffff168473ffffffffffffffffffffffffffffffffffffffff161415611676576040517f08c379a00000000000000000000000000000000000000000000000000000000081526004018080602001828103825260258152602001806125826025913960400191505060405180910390fd5b61167e611b8c565b73ffffffffffffffffffffffffffffffffffffffff168573ffffffffffffffffffffffffffffffffffffffff1614806116c457506116c3856116be611b8c565b61152b565b5b611719576040517f08c379a00000000000000000000000000000000000000000000000000000000081526004018080602001828103825260298152602001806125596029913960400191505060405180910390fd5b6000611723611b8c565b90506117438187876117348861206d565b61173d8861206d565b87611b94565b6117c0836040518060600160405280602a81526020016125d9602a91396001600088815260200190815260200160002060008a73ffffffffffffffffffffffffffffffffffffffff1673ffffffffffffffffffffffffffffffffffffffff16815260200190815260200160002054611b9c9092919063ffffffff16565b6001600086815260200190815260200160002060008873ffffffffffffffffffffffffffffffffffffffff1673ffffffffffffffffffffffffffffffffffffffff16815260200190815260200160002081905550611877836001600087815260200190815260200160002060008873ffffffffffffffffffffffffffffffffffffffff1673ffffffffffffffffffffffffffffffffffffffff16815260200190815260200160002054611c5690919063ffffffff16565b6001600086815260200190815260200160002060008773ffffffffffffffffffffffffffffffffffffffff1673ffffffffffffffffffffffffffffffffffffffff168152602001908152602001600020819055508473ffffffffffffffffffffffffffffffffffffffff168673ffffffffffffffffffffffffffffffffffffffff168273ffffffffffffffffffffffffffffffffffffffff167fc3d58168c5ae7397731d063d5bbf3d657854427343f4c083240f7aacaa2d0f628787604051808381526020018281526020019250505060405180910390a461195d8187878787876120dd565b505050505050565b6001816000016000828254019250508190555050565b600081600001549050919050565b600073ffffffffffffffffffffffffffffffffffffffff168473ffffffffffffffffffffffffffffffffffffffff161415611a0f576040517f08c379a000000000000000000000000000000000000000000000000000000000815260040180806020018281038252602181526020018061267d6021913960400191505060405180910390fd5b6000611a19611b8c565b9050611a3a81600087611a2b8861206d565b611a348861206d565b87611b94565b611a9d836001600087815260200190815260200160002060008873ffffffffffffffffffffffffffffffffffffffff1673ffffffffffffffffffffffffffffffffffffffff16815260200190815260200160002054611c5690919063ffffffff16565b6001600086815260200190815260200160002060008773ffffffffffffffffffffffffffffffffffffffff1673ffffffffffffffffffffffffffffffffffffffff168152602001908152602001600020819055508473ffffffffffffffffffffffffffffffffffffffff16600073ffffffffffffffffffffffffffffffffffffffff168273ffffffffffffffffffffffffffffffffffffffff167fc3d58168c5ae7397731d063d5bbf3d657854427343f4c083240f7aacaa2d0f628787604051808381526020018281526020019250505060405180910390a4611b85816000878787876120dd565b5050505050565b600033905090565b505050505050565b6000838311158290611c49576040517f08c379a00000000000000000000000000000000000000000000000000000000081526004018080602001828103825283818151815260200191508051906020019080838360005b83811015611c0e578082015181840152602081019050611bf3565b50505050905090810190601f168015611c3b5780820380516001836020036101000a031916815260200191505b509250505060405180910390fd5b5082840390509392505050565b600080828401905083811015611cd4576040517f08c379a000000000000000000000000000000000000000000000000000000000815260040180806020018281038252601b8152602001807f536166654d6174683a206164646974696f6e206f766572666c6f77000000000081525060200191505060405180910390fd5b8091505092915050565b611cfd8473ffffffffffffffffffffffffffffffffffffffff166123ea565b15612065578373ffffffffffffffffffffffffffffffffffffffff1663bc197c8187878686866040518663ffffffff1660e01b8152600401808673ffffffffffffffffffffffffffffffffffffffff1681526020018573ffffffffffffffffffffffffffffffffffffffff168152602001806020018060200180602001848103845287818151815260200191508051906020019060200280838360005b83811015611db5578082015181840152602081019050611d9a565b50505050905001848103835286818151815260200191508051906020019060200280838360005b83811015611df7578082015181840152602081019050611ddc565b50505050905001848103825285818151815260200191508051906020019080838360005b83811015611e36578082015181840152602081019050611e1b565b50505050905090810190601f168015611e635780820380516001836020036101000a031916815260200191505b5098505050505050505050602060405180830381600087803b158015611e8857600080fd5b505af1925050508015611ebc57506040513d6020811015611ea857600080fd5b810190808051906020019092919050505060015b611fc657611ec861241b565b80611ed35750611f75565b806040517f08c379a00000000000000000000000000000000000000000000000000000000081526004018080602001828103825283818151815260200191508051906020019080838360005b83811015611f3a578082015181840152602081019050611f1f565b50505050905090810190601f168015611f675780820380516001836020036101000a031916815260200191505b509250505060405180910390fd5b6040517f08c379a00000000000000000000000000000000000000000000000000000000081526004018080602001828103825260348152602001806124d26034913960400191505060405180910390fd5b63bc197c8160e01b7bffffffffffffffffffffffffffffffffffffffffffffffffffffffff1916817bffffffffffffffffffffffffffffffffffffffffffffffffffffffff191614612063576040517f08c379a00000000000000000000000000000000000000000000000000000000081526004018080602001828103825260288152602001806125066028913960400191505060405180910390fd5b505b505050505050565b606080600167ffffffffffffffff8111801561208857600080fd5b506040519080825280602002602001820160405280156120b75781602001602082028036833780820191505090505b50905082816000815181106120c857fe5b60200260200101818152505080915050919050565b6120fc8473ffffffffffffffffffffffffffffffffffffffff166123ea565b156123e2578373ffffffffffffffffffffffffffffffffffffffff1663f23a6e6187878686866040518663ffffffff1660e01b8152600401808673ffffffffffffffffffffffffffffffffffffffff1681526020018573ffffffffffffffffffffffffffffffffffffffff16815260200184815260200183815260200180602001828103825283818151815260200191508051906020019080838360005b838110156121b557808201518184015260208101905061219a565b50505050905090810190601f1680156121e25780820380516001836020036101000a031916815260200191505b509650505050505050602060405180830381600087803b15801561220557600080fd5b505af192505050801561223957506040513d602081101561222557600080fd5b810190808051906020019092919050505060015b6123435761224561241b565b8061225057506122f2565b806040517f08c379a00000000000000000000000000000000000000000000000000000000081526004018080602001828103825283818151815260200191508051906020019080838360005b838110156122b757808201518184015260208101905061229c565b50505050905090810190601f1680156122e45780820380516001836020036101000a031916815260200191505b509250505060405180910390fd5b6040517f08c379a00000000000000000000000000000000000000000000000000000000081526004018080602001828103825260348152602001806124d26034913960400191505060405180910390fd5b63f23a6e6160e01b7bffffffffffffffffffffffffffffffffffffffffffffffffffffffff1916817bffffffffffffffffffffffffffffffffffffffffffffffffffffffff1916146123e0576040517f08c379a00000000000000000000000000000000000000000000000000000000081526004018080602001828103825260288152602001806125066028913960400191505060405180910390fd5b505b505050505050565b600080823b905060008111915050919050565b6000601f19601f8301169050919050565b60008160e01c9050919050565b600060443d101561242b576124ce565b60046000803e61243c60005161240e565b6308c379a0811461244d57506124ce565b60405160043d036004823e80513d602482011167ffffffffffffffff82111715612479575050506124ce565b808201805167ffffffffffffffff8111156124985750505050506124ce565b8060208301013d85018111156124b3575050505050506124ce565b6124bc826123fd565b60208401016040528296505050505050505b9056fe455243313135353a207472616e7366657220746f206e6f6e2045524331313535526563656976657220696d706c656d656e746572455243313135353a204552433131353552656365697665722072656a656374656420746f6b656e73455243313135353a2062616c616e636520717565727920666f7220746865207a65726f2061646472657373455243313135353a2063616c6c6572206973206e6f74206f776e6572206e6f7220617070726f766564455243313135353a207472616e7366657220746f20746865207a65726f2061646472657373455243313135353a207472616e736665722063616c6c6572206973206e6f74206f776e6572206e6f7220617070726f766564455243313135353a20696e73756666696369656e742062616c616e636520666f72207472616e73666572455243313135353a2073657474696e6720617070726f76616c2073746174757320666f722073656c66455243313135353a206163636f756e747320616e6420696473206c656e677468206d69736d61746368455243313135353a2069647320616e6420616d6f756e7473206c656e677468206d69736d61746368455243313135353a206d696e7420746f20746865207a65726f2061646472657373a26469706673582212207eb294d1642b78bf9968c86a159d57a37c5f2fb6379e4a9580f4fcc25441d30e64736f6c63430007000033",
  "immutableReferences": {},
  "source": "// SPDX-License-Identifier: MIT\r\npragma solidity ^0.7.0;\r\n\r\nimport \"@openzeppelin/contracts/token/ERC1155/ERC1155.sol\";\r\nimport \"@openzeppelin/contracts/token/ERC1155/ERC1155Receiver.sol\";\r\nimport \"@openzeppelin/contracts/utils/Counters.sol\";\r\n\r\ncontract Items is ERC1155, ERC1155Receiver {\r\n    using Counters for Counters.Counter;\r\n    Counters.Counter private _tokenIds;\r\n\r\n    constructor() ERC1155(\"https://ipfs/{id}.json\") {}\r\n\r\n    function addItem() public returns (uint256) {\r\n        _tokenIds.increment();\r\n\r\n        uint256 newItemId = _tokenIds.current();\r\n        _mint(msg.sender, newItemId, 1, \"\");\r\n\r\n        return newItemId;\r\n    }\r\n\r\n    function onERC1155Received(\r\n        address owner,\r\n        address,\r\n        uint256 id,\r\n        uint256,\r\n        bytes memory\r\n    ) public virtual override returns (bytes4) {\r\n        _mint(owner, id, 1, \"\");\r\n        return this.onERC1155Received.selector;\r\n    }\r\n\r\n    function onERC1155BatchReceived(\r\n        address operator,\r\n        address from,\r\n        uint256[] memory ids,\r\n        uint256[] memory values,\r\n        bytes memory data\r\n    ) public virtual override returns (bytes4) {\r\n        for (uint256 i = 0; i < ids.length; i++) {\r\n            _mint(operator, ids[i], 1, \"\");\r\n        }\r\n        return this.onERC1155BatchReceived.selector;\r\n    }\r\n}\r\n",
  "sourcePath": "C:/Users/caleteet/source/Public/HackMoney/contracts/Items.sol",
  "compiler": {
    "name": "solc",
    "version": "0.7.0+commit.9e61f92b.Emscripten.clang"
  },
  "schemaVersion": "3.4.1",
  "updatedAt": "2021-06-23T17:56:44.742Z",
  "networkType": "ethereum",
  "devdoc": {
    "kind": "dev",
    "methods": {
      "balanceOf(address,uint256)": {
        "details": "See {IERC1155-balanceOf}. Requirements: - `account` cannot be the zero address."
      },
      "balanceOfBatch(address[],uint256[])": {
        "details": "See {IERC1155-balanceOfBatch}. Requirements: - `accounts` and `ids` must have the same length."
      },
      "isApprovedForAll(address,address)": {
        "details": "See {IERC1155-isApprovedForAll}."
      },
      "onERC1155BatchReceived(address,address,uint256[],uint256[],bytes)": {
        "details": "Handles the receipt of a multiple ERC1155 token types. This function is called at the end of a `safeBatchTransferFrom` after the balances have been updated. To accept the transfer(s), this must return `bytes4(keccak256(\"onERC1155BatchReceived(address,address,uint256[],uint256[],bytes)\"))` (i.e. 0xbc197c81, or its own function selector).",
        "params": {
          "data": "Additional data with no specified format",
          "from": "The address which previously owned the token",
          "ids": "An array containing ids of each token being transferred (order and length must match values array)",
          "operator": "The address which initiated the batch transfer (i.e. msg.sender)",
          "values": "An array containing amounts of each token being transferred (order and length must match ids array)"
        },
        "returns": {
          "_0": "`bytes4(keccak256(\"onERC1155BatchReceived(address,address,uint256[],uint256[],bytes)\"))` if transfer is allowed"
        }
      },
      "safeBatchTransferFrom(address,address,uint256[],uint256[],bytes)": {
        "details": "See {IERC1155-safeBatchTransferFrom}."
      },
      "safeTransferFrom(address,address,uint256,uint256,bytes)": {
        "details": "See {IERC1155-safeTransferFrom}."
      },
      "setApprovalForAll(address,bool)": {
        "details": "See {IERC1155-setApprovalForAll}."
      },
      "supportsInterface(bytes4)": {
        "details": "See {IERC165-supportsInterface}. Time complexity O(1), guaranteed to always use less than 30 000 gas."
      },
      "uri(uint256)": {
        "details": "See {IERC1155MetadataURI-uri}. This implementation returns the same URI for *all* token types. It relies on the token type ID substitution mechanism https://eips.ethereum.org/EIPS/eip-1155#metadata[defined in the EIP]. Clients calling this function must replace the `\\{id\\}` substring with the actual token type ID."
      }
    },
    "version": 1
  },
  "userdoc": {
    "kind": "user",
    "methods": {},
    "version": 1
  }
}